:02000002D0002C
:1040000000400D00A4690D00000006000C00050131
:0840100004017E050000000020
:044018003C650D00F6
:1040200009480A49884208B505D0094A824202D0A7
:10403000121A02F01BFA0748074A0021121A02F06E
:1040400020FA014808BD00BF44E3032010690D00B9
:10405000B0E30320B0E30320F0E7032070B501F0E4
:10406000F3FB074C074BE41AA40800251E46A542A3
:1040700004D056F8253098470135F8E770BD00BFE9
:104080000C690D00CC680D0000F04AB908B500F0CD
:1040900067F9BDE8084001F0A5BB00F0D1BB00F016
:1040A000D7BB00F0D5BB000008B5034A00210C20A7
:1040B00000F022FBFEE700BFC9440D000078B0FA13
:1040C00080F0400970470123037070470368C9B24C
:1040D0009B68184740228272C1600022032142601F
:1040E000026001724272704770B5044690F90A107E
:1040F000C06800F07FFFF521E068FFF7E7FFE068A8
:1041000000F07FFF00283FD1142000F0C1FB00F039
:10411000E3F9054600F0E0F9401B632834D8032298
:1041200094F90A10E06800F05CFF032828D1E068E9
:1041300003685B6998470646E06803685B699847CF
:104140000546E068036845EA06255B69ADB2984715
:1041500007EE905A9FED0E7AF8EE677AB9EE080AEC
:1041600067EE877A9FED0B7AA7EE870ADFED0A7A72
:10417000B4EEE70AF1EE10FAC8BFB0EE670A70BD00
:10418000062000F085FBC5E79FED040A70BD00BF67
:104190000000FA42000080370000C8420000C07FE3
:1041A00070B5044690F90A10C06800F023FFF321AF
:1041B000E068FFF78BFFE06800F023FF002848D19C
:1041C000142000F065FB00F087F9054600F084F943
:1041D000401B63283DD8032294F90A10E06800F0E0
:1041E00000FF032831D1E06803685B699847064601
:1041F000E06803685B6998470546E068036845EA3C
:1042000006255B699847A8B207EE900AF8EE677A30
:1042100017EE900A01F066FE15A3D3E9002301F022
:10422000B5FE02F0C5F8DFED107A07EE100A67EE72
:10423000277A17EE900A01F055FE09A3D3E900236F
:1042400001F0F0FC02F0B4F804E0062000F020FBDE
:10425000BCE7064800EE100A70BD00BFAFF3008057
:10426000CDCCCCCCCC6C4740000080370000C07F68
:10427000D7A3703D0AF7654000F036B903460846FB
:104280001A6832B12C2201F8012B186803681B68E8
:104290001847014902F026B978650D0037B5044684
:1042A000C0680D4601F01EFEA268CDE90001054977
:1042B000284600F0D5FA2918201D03B0BDE830408B
:1042C000FFF7DCBF7A650D0010B5054B03600446AF
:1042D000406810B103689B689847204610BD00BF36
:1042E00058650D0010B5034B03600446FFF7ECFF63
:1042F000204610BD6C650D0010B50446FFF7F2FFB7
:104300002046102101F03DFB204610BD10B50446AB
:10431000FFF7DAFF2046082101F033FB204610BDED
:1043200008B501F0E7FABDE8084000F04BBE000018
:1043300038B504462DED028B10200D46B0EE408AB4
:10434000FFF7ABFE30B123684360044B0360856028
:1043500080ED038ABDEC028B206038BD6C650D00DA
:1043600010B592B012AC002344F8403D2E48FFF740
:1043700017FF2E492046FFF7DBFF2B48FFF7B4FE5F
:104380002B492046FFF7D4FF212001F09BFA01F0D2
:1043900097FD23A3D3E9002301F0F8FD02F008F80C
:1043A000244900EE100A2046FFF7C2FF02987B2343
:1043B0008DF8143003680DF115011B68984701F062
:1043C0008FF905A901F029F81B4B1C491B788DF8C2
:1043D000003005AA3C2303A800F0F6FB049C7CB146
:1043E0006368013B63605BB9236820469B6898471C
:1043F000A368013BA3601BB923682046DB6898478C
:104400000F4B1B684FF47A70584300F041FA029842
:1044100010B103689B68984712B010BDAFF30080DD
:104420009402C1D2AF63523FB4E3032098650D00FC
:10443000A4650D00AD650D00C4E30320B5650D0056
:1044400044E3032008B5064B01221A7000F04CF833
:1044500001F050FABDE8084001460248FFF73ABEB5
:10446000C4E30320B4E3032008B5024B1B689B6838
:10447000019308BD4802030008B5024B1B681B6985
:10448000019308BD4802030008B5024B1B685B6935
:10449000019308BD4802030008B5024B1B681B6B63
:1044A000019308BD4802030008B5024B1B685B6C12
:1044B000019308BD4802030008B5024B1B685B6806
:1044C000019308BD1802030008B5024B1B68DB68A6
:1044D000019308BD1802030008B5024B1B685B6915
:1044E000019308BD1802030008B5024B1B681B6846
:1044F000019308BD2C02030008B5024B1B685B68E2
:10450000019308BD2C02030008B5024B1B681B6B0E
:10451000019308BD2C02030008B5024B1B68DB6841
:10452000019308BD2802030008B5024B1B685B69B4
:10453000019308BD2802030008B5024B1B689B6964
:10454000019308BD2802030008B5024B1B68DB6914
:10455000019308BD2802030008B5024B1B681B6AC3
:10456000019308BD2802030008B5024B1B685B6A73
:10457000019308BD2802030008B5024B1B689B6A23
:10458000019308BD2802030008B5024B1B68DB6AD3
:10459000019308BD2802030008B5024B1B681B6B82
:1045A000019308BD2802030008B5024B1B685B6B32
:1045B000019308BD2802030008B5024B1B681B6C61
:1045C000019308BD2802030008B5024B1B685B6914
:1045D000019308BD6402030008B5024B1B689B6889
:1045E000019308BD6802030008B5024B1B68DB6835
:1045F000019308BD6802030008B5024B1B68DB6924
:10460000019308BD3002030008B5024B1B681B6A0A
:10461000019308BD3002030008B5024B1B681B68FC
:10462000019308BD3C02030008B5024B1B68DB6820
:10463000019308BD3C02030008B5024B1B681B69CF
:10464000019308BD3C02030008B5024B1B685B697F
:10465000019308BD3C02030008B5024B1B689B692F
:10466000019308BD3C02030008B5024B1B68DB69DF
:10467000019308BD3C02030008B5024B1B681B6A8E
:10468000019308BD3C02030008B5024B1B689B6AFE
:10469000019308BD3C02030008B5024B1B681B6870
:1046A000019308BD4C02030008B5024B1B681B694F
:1046B000019308BD4C02030008B5024B1B685B69FF
:1046C000019308BD4C02030008B5024B1B689B69AF
:1046D000019308BD4C02030008B5024B1B68DB695F
:1046E000019308BD4C02030008B5024B1B681B6A0E
:1046F000019308BD4C02030008B5024B1B685B6BBD
:10470000019308BD6002030008B5024B1B685B689B
:10471000019308BD2002030008B5024B1B685B69CA
:10472000019308BD2002030008B5024B1B68DB6C37
:10473000019308BD2002030008B5024B1B685B6DA6
:10474000019308BD2002030008B5034B1B68D3F892
:104750008830019308BD00002002030008B5034B18
:104760001B68D3F89430019308BD000020020300B9
:1047700008B5024B1B685B69019308BD4402030046
:1047800008B5024B1B681B6A019308BD4402030075
:1047900008B5024B1B68DB6B019308BD44020300A4
:1047A00008B5024B1B685B68019308BD400203001B
:1047B00008B5024B1B689B68019308BD40020300CB
:1047C00008B5024B1B68DB68019308BD400203007B
:1047D00008B5024B1B681B69019308BD400203002A
:1047E00008B5024B1B685B69019308BD40020300DA
:1047F00008B5024B1B689B69019308BD400203008A
:1048000008B5024B1B68DB69019308BD4002030039
:1048100008B5024B1B681B6A019308BD40020300E8
:1048200008B5024B1B681B6B019308BD40020300D7
:1048300008B5024B1B685B6B019308BD4002030087
:1048400008B5024B1B681B68019308BD1C020300DE
:1048500008B5024B1B685B68019308BD1C0203008E
:1048600008B5024B1B68DB68019308BD1C020300FE
:1048700008B5024B1B68DB6A019308BD1C020300EC
:1048800008B5024B1B681B6B019308BD1C0203009B
:104890000021FFF741BF10B5836804460BB901F052
:1048A00072F8C3689847A3681BB1032221462046CB
:1048B000984720461021BDE8104001F062B810B5BD
:1048C000036804469B689847A368013BA3602BB923
:1048D00023682046DB68BDE81040184710BD0B6810
:1048E000036013B15A6801325A60704710B504462C
:1048F000006828B14368013B43600BB9FFF7DFFF55
:10490000204610BD024800230360FFF7CDBD00BF65
:10491000C8E3032070470020704710B510210446FB
:1049200001F02FF8204610BD08B508B1FFF7F5FFDC
:1049300008BD10B58368044613B1032201469847A9
:10494000204610BD0022026010B54FF69C72828096
:10495000B1F9044084808A8002680C6804600A60AF
:1049600010BD10B504460068FFF772FF204610BD69
:1049700038B5C468F4B12378022B03D104F10C00DC
:10498000FFF7EFFF656835B12846FFF7D2FF10212A
:10499000284600F0F6FFA56835B12846FFF7C9FFA5
:1049A0001021284600F0EDFF20461421BDE83840D4
:1049B00000F0E7BF38BD13B5044691E805000023B9
:1049C0004B600B602060626001A801930093FFF7C9
:1049D0008DFF204602B010BDF7B50C4602AD54F86D
:1049E000043B45F8083D06460F4601A82146FFF75F
:1049F00076FF29463046FFF7DEFF01A8FFF776FF76
:104A00002046FFF773FF3846082100F0BAFF304612
:104A100003B0F0BD13B50B46044603C88DE8030090
:104A200093E8030084E803009DE8030083E80300A3
:104A300002B010BD38B500230446036010200D46B7
:104A4000FFF72BFB28B1012343608360024B036017
:104A5000C5602060204638BDD0650D00826810B565
:104A60000AB900F090FFC368BDE81040184708B5C8
:104A7000006800F11001FFF7F1FF08BD826810B572
:104A80000AB900F080FFC368BDE81040184708B5B8
:104A9000006800F11001FFF7F1FF08BD38B50023F1
:104AA00083608B6804460D462BB102229847EB6861
:104AB000E360AB68A360204638BD0000F0B589B064
:104AC00004686846FFF73EFF00238DF808304FF07A
:104AD0000202D4E84F3F002B03D1C4E8412F002944
:104AE000F7D102D08DF8083063E014F10C0503D043
:104AF00069462846FFF726FFBFF35F8F01236370E7
:104B0000002004F10803BFF35F8F53E8006F43E810
:104B10000002002AF9D1BFF35F8F002E49D0FFF7C2
:104B200003FE20B129463046FFF798FF3AE03146B0
:104B300002A8FFF7B3FFE068B4F9105008B101F024
:104B4000D9FC06901020ADF81C50FFF7A6FA0546D8
:104B5000E8B1002787601820FFF79FFA044688B164
:104B60000146876002A8FFF755FF049BA268A36077
:104B7000059B049206A9E268E36004F11000059227
:104B8000FFF7E0FE0D4BEB600D4B2C60AB6006A811
:104B9000FFF7E7FE02A8FFF7CCFE002229460948EE
:104BA000FFF7CAFD3046FFF7C4FE1021304600F083
:104BB000E8FE6846FFF7D5FE09B0F0BD6F4A0D006C
:104BC000E54C0D0097480D002DE9F04F8BB00646DF
:104BD0000F46904699469DF850A0FFF7C9FD07ADD6
:104BE000834630BB4FF62E73059005A92846ADF8D5
:104BF0001830FFF7A7FE1420FFF74FFA044658B10C
:104C00000223037001234370C0F804B0C0F808B059
:104C100029460C30FFF796FE3046214640F8044BFB
:104C2000FFF708FF2846FFF79CFE05A8FFF799FE4F
:104C300052E000240C2314206C60AC600793FFF753
:104C40002CFA014618B1047044704460846004A8D2
:104C50000391FFF7EFFE224B08930820FFF71DFAA0
:104C6000044628B1039B40F8043B04A9FFF737FE34
:104C700000955FFA8AF34A46414638460994FFF7A1
:104C80007FFD20B9039B5B7803F0FF0283B1039B98
:104C9000059304A906A8FFF722FE05A93046FFF7F1
:104CA0008AFE06A8FFF722FE04A8FFF71FFE13E006
:104CB0004FF69C7305A903A80592ADF81830FFF7CD
:104CC000FDFE05A8FFF74DFE05A80999FFF784FE34
:104CD00006A8FFF70BFEDAE730460BB0BDE8F08F11
:104CE000554E0D00022AF8B5044606D0032A17D007
:104CF000012A22D10B6803601FE018200E68FFF71D
:104D0000CCF9054650B13146FFF7C8FE3069B6F917
:104D1000147008B101F0EEFB2861AF8225600CE051
:104D2000046854B104F11000FFF71BFE2046FFF7A2
:104D300000FE1821204600F024FE0020F8BD38B502
:104D4000002383608B6804460D462BB102229847EE
:104D5000EB68E360AB68A360204638BD022A70B5FB
:104D6000044606D0032A11D0012A18D10B6803602B
:104D700015E014200E68FFF790F9054620B1314682
:104D8000FFF7DDFF337C2B74256008E0046834B145
:104D90002046FFF7CEFD1421204600F0F2FD002052
:104DA00070BD0000F0B5002387B00C46BFF35F8FE5
:104DB00050E8006F40E80032002AF9D1BFF35F8F5E
:104DC000002E3FD01846FFF7AFFC074620B1214622
:104DD0003046FFF753FE2EE0314601A8FFF7AFFF44
:104DE00023788DF814301020FFF757F90546D0B11D
:104DF00087601420FFF751F9044678B187600146B7
:104E000001A8FFF707FE039BA268A360049B03921F
:104E1000E268E3609DF81430049223740A4BEB605F
:104E20000A4B2C60AB6001A8FFF783FD00222946E6
:104E30000748FFF781FC3046FFF77BFD1021304625
:104E400000F09FFD07B0F0BD8F4A0D005D4D0D00D5
:104E500097480D0030B585B004460D4668461146AA
:104E6000FFF7BAFD7CB124B228460DB101F042FB38
:104E7000029002A96846ADF80C40FFF71FFE02A899
:104E8000FFF76FFD1DE000988DF808404FF001021C
:104E9000D0E84F3FA34203D1C0E8412F0029F7D10A
:104EA00002D08DF808300CE010F10C014FF0010336
:104EB00018BF0373BFF35F8F043000F8033CFFF7A4
:104EC00071FF01A8FFF712FD05B030BD00221146A9
:104ED0004068FFF79DBC002211464068FFF7A8BC60
:104EE00000224068FFF79CBC002281F0010140686D
:104EF000FFF786BC00231A4619464068FFF778BCC6
:104F000000231A4619464068FFF76ABC0022114682
:104F10004068FFF75DBC002211464068FFF748BCBF
:104F2000002202214068FFF74BBC00231A4640686C
:104F3000FFF736BC024B03225A60024A1A607047E0
:104F4000CCE30320EC650D007047F8B50646154626
:104F50000C468F18BC4206D0336814F8011B9B68BE
:104F600030469847F6E72846F8BD0022007CFFF758
:104F7000F3BA0021007CFFF7F7BA0021007CFFF7AD
:104F8000FBBA0021007CFFF7FFBA0021007CFFF78D
:104F900003BB10B51421044600F0F3FC204610BDFD
:104FA00010B504464FF47A730846A3600021044B01
:104FB000207461602360FFF7FFFA204610BD00BF38
:104FC00020660D0000231A461946007CFFF7A4BA9C
:104FD00013B50024007C0094FFF7A6FAC0B202B01B
:104FE00010BD0123D2B2C9B2FFF7F2BF0022007C8C
:104FF000FFF7A2BAC9B2FFF7F9BF0022007CFFF7A2
:10500000A3BA0121FFF7F9BF0021007CFFF7CCBA5A
:10501000704710B51821044600F0B3FC204610BDBF
:10502000F0B5037D062B8DB00E4600F104074FF05E
:10503000000402D000F1080518E00CAD394605F86F
:10504000304D2F232A460A20FFF7BEFA284601F0EA
:105050006CFA33680246DB682946304698470FE011
:1050600024B12E21304600F0C9F9044415F8011D81
:105070000A22304600F008FABD420444F0D120462E
:105080000DB0F0BD10B5054B0446112240F8043BAD
:10509000002101F0F6F9204610BD00BF48660D0062
:1050A0000346074A10B543F8042B01F1100251F8EA
:1050B000044B43F8044B9142F9D10A781A7010BDA1
:1050C00048660D0010B59DF8084044EA032343EA02
:1050D000024242EA016104234160037510BD37B505
:1050E0000D788B784A78C97800912946FFF7EAFF56
:1050F00003B030BD014B024A1A607047D4E303206D
:10510000C7660D00002211464068FFF781BB0022F0
:1051100011464068FFF78CBB00224068FFF780BB58
:10512000002281F001014068FFF76ABB00231A46A4
:1051300001214068FFF75CBB00231A46194640680E
:10514000FFF74EBB002211464068FFF741BB00222B
:1051500011464068FFF72CBB002202214068FFF790
:105160002FBB00231A464068FFF71ABB38B5054627
:1051700088B104684CB1A3681BB1032221462046C4
:1051800098471021204600F0FCFB28461421BDE87A
:10519000384000F0F6BB38BD10B103685B681847B3
:1051A000704710B503680446BBB15868FFF75CF957
:1051B00078B923685A7C12B95868FFF75DF92368FB
:1051C0005868FFF761F920680023236028B1FFF7D2
:1051D000CDFF206808B1FFF7C9FF204610BD0000D1
:1051E00038B50C4B03600446D0F8CC0108B1FEF78B
:1051F00058FFD4F8C45135B12846FFF7D2FF042137
:10520000284600F0BEFBA06808B1FFF7C5FF2046A6
:1052100038BD00BF38670D0038B50E4C0E4B23600B
:105220000025022304F5E4706360A560C4F8C4514E
:10523000C4F8C851FFF738F9084BC4F8CC5184F8CA
:10524000D05123602046064A0649BDE8384000F0A8
:1052500093BB00BFD8E303206C670D0038670D00D7
:10526000B0E30320E1510D0000231A464068FFF728
:1052700097BA002202214068FFF7A2BA0022114625
:105280004068FFF795BA002211464068FFF7A0BAC0
:1052900000231A4619464068FFF7A2BA00231A46AF
:1052A00019464068FFF7A4BA002281F00101406866
:1052B000FFF7A6BA00224068FFF7B2BA00221146F3
:1052C0004068FFF7B5BA002211464068FFF7A0BA60
:1052D0002DE9F043002495B016460D460746FFF72A
:1052E000D1FE214620220CA8009401F0CAF84023E8
:1052F0000C9321466B460CAA3046FFF775F904461D
:10530000002844D1024601216868FFF761FA0221B2
:10531000804622466868FFF75BFA009E8146214678
:10532000002E34D0002932D17368022B02D00A2B10
:1053300009D02AE0B8F1000F27D07169384604314E
:10534000FFF7CDFE20E0B9F1000F1ED074691122E5
:1053500001A801F096F806238DF8143001AD04F190
:1053600008031834186859682A4603C20833A34250
:105370001546F7D101A906A807ADFFF791FE0FCD9D
:105380003C1D0FC42B6823700121F669C8E7009803
:10539000FFF722F9384615B0BDE8F083024B034A07
:1053A0001A6000225A607047ACE503206C670D005C
:1053B000F8B506460D468F180024BD420CD0336860
:1053C00015F8011B9B6830469847002801DB044410
:1053D000F3E7002C08BF04462046F8BD70B505462B
:1053E0000C46084649B101F0A0F82B680246214658
:1053F0002846DB68BDE87040184770BD03689B68AD
:10540000184738B50D210546FFF7F8FF0A21044675
:105410002846FFF7F3FF204438BD38B50546FFF7AF
:10542000DDFF04462846FFF7ECFF204438BD30B5C9
:105430008BB00B4600218DF82410012A98BF0A2258
:105440000DF12304B3FBF2F505FB123303F0FF0368
:10545000092B94BF30333733DBB2214604F80139CE
:105460002B46002DEED1FFF7B9FF0BB030BD10B4C5
:105470002AB903685DF8044B9B68C9B21847D2B2D9
:105480005DF8044BFFF7D3BFFFF7F1BF10B504463B
:10549000FFF74FFA204610BD0348044A0449002391
:1054A000836000F069BA00BFB4E50320B0E30320D5
:1054B0008D540D00704710B51021044600F061FABC
:1054C000204610BD70B5084B0360044600250E460B
:1054D00040F80C5FFEF7E0FF30462671FFF78CF8CE
:1054E000A560204670BD00BFA0670D000079FFF7E2
:1054F0008BB80000044B00204FF6FF7218705880E4
:105500009A80FFF701B900BFC4E50320024B1A6877
:10551000024B1A60704700BF48E30320CCE503202C
:1055200070474174704708B5007CFFF7ADF820EA7A
:10553000E07008BD08B5007CFFF77EF820EAE07057
:1055400008BD08B5007CFFF787F830EA200028BFC7
:105550004FF0FF3008BD08B5007CFFF775F830EA62
:10556000200028BF4FF0FF3008BD007CFFF77CB85B
:1055700010B51421044600F004FA204610BD70B5A1
:10558000457C04460E4625B9007CFFF77DF80028CF
:1055900005DD3146207CBDE87040FFF745B8284660
:1055A00070BD000010B50446084611460022626036
:1055B0004FF47A72A260054A22600122207462745C
:1055C0001A46FFF729F8204610BD00BFDC670D0022
:1055D000007CFFF751B8000038B50C4D296811F078
:1055E000010411D12846FEF769FD68B1084A094B4C
:1055F00009482146FFF7D6FF2846FEF764FD074A13
:105600000749054800F0B8F9034838BD68E60320AB
:105610006CE60320E4E50320D0E50320B0E303209B
:1056200021550D0041747047704708B50021007C7A
:10563000FFF74AF830EA200028BF4FF0FF3008BDDE
:1056400008B50121007CFFF73FF830EA200028BFB1
:105650004FF0FF3008BD08B5007CFFF72DF820EAB9
:10566000E07008BD08B5007CFFF71EF820EAE07086
:1056700008BD007CFFF738B810B51421044600F0CF
:1056800080F9204610BD38B50446007C0D46FFF772
:1056900013F8002801DC607C28B12946207CFFF744
:1056A0001BF820EAE07038BD10B5044600236360A3
:1056B0004FF47A73A360054B2360012308462174DD
:1056C00063741146FEF7E8FF204610BD0C680D001C
:1056D00010B514220446002100F0D3FE204610BD70
:1056E00030B50E4D87B001A8FFF7F2FF296811F021
:1056F000010410D12846FEF7E1FC60B101AA214661
:105700000748FFF7D1FF2846FEF7DDFC054A0649AA
:10571000034800F031F9024807B030BDF0E603203D
:10572000F4E60320B0E3032029560D0000221146C1
:105730004068FFF74DB8002211464068FFF768B88F
:10574000002211464068FFF773B800224068FFF757
:1057500067B8002281F001014068FFF751B80023CB
:105760001A4619464068FFF743B800231A461946FF
:105770004068FFF735B8002211464068FFF718B8B7
:10578000002202214068FFF71BB800231A46406838
:10579000FFF706B8024B04225A60024A1A607047AB
:1057A00008E703203C680D0008B50C4B33B1FFF748
:1057B00097FF03681B699847002809DC084B63B111
:1057C000FFF70AFF03681B699847002803DC08BD40
:1057D000AFF30080F2E7AFF3008008BD00000000E7
:1057E0000000000008B5FFF7DFFFFEF775FE014B74
:1057F000186008BD14E7032007B5002300931A467C
:105800006FF07701FEF7AAFF03B05DF804FB00001C
:1058100007B543880A2B08D0502B09D1094B1B68C8
:105820003BB103B05DF804EB1847FFF7E5FF06E076
:10583000002300931A466FF07701FEF78FFF03B045
:105840005DF804FB10E7032010B5FEF735FE0446B3
:1058500000F020FE074B13B12046AFF3008000217B
:105860000448FEF795FF00210348BDE81040FEF70D
:105870006BBF00BF0000000011580D0010B50446BA
:105880000F48FFF733FE28B1A4F10B03022B01D818
:10589000002010BD00F02EF8FFF7B6FB08B1012C78
:1058A000F6D9FFF799FEFFF793FE18B1A4F10903AB
:1058B000012BEDD9232C8CBF0020012010BD00BF8F
:1058C00030E703200D2810B504469CBF0E34A4B267
:1058D0002046FFF7D3FF50B103212046FEF70CFE10
:1058E000032804D12046BDE81040FEF70DBE00207D
:1058F00010BD000038B50B4D296811F001040FD11F
:105900002846FEF7DBFB58B121460748FFF748FB66
:105910002846FEF7D8FB054A0549034800F02CF855
:10592000014838BD18E703201CE70320B0E303203B
:10593000494F0D0070B50C4C0C4E0D4D002120460A
:10594000FFF7C0FD20460B4C3246294600F014F804
:1059500001212046FFF7B6FD324629462046BDE824
:10596000704000F009B800BF30E70320B0E3032027
:10597000B5540D0040E703200B460146184600F0E1
:1059800067BDFEF78CBB08B5FEF772FF244B1A68A3
:10599000D0075CBF01221A60224B1A68D1075CBF96
:1059A00001221A60204B1A68D2075CBF01221A60DC
:1059B0001E4B1A68D0075CBF01221A601C4B1A6884
:1059C000D1075CBF01221A601A4B1A68D2075CBF6C
:1059D00001221A60184B1A68D0075CBF01221A60B6
:1059E000164B1A68D1075CBF01221A60144B1A6863
:1059F000D2075CBF01221A60124B1A68D0075CBF45
:105A000001221A60104B1A68D1075CBF01221A608C
:105A10000E4B1A68D2075CBF01221A60704700BFA4
:105A20007CE7032078E7032074E7032070E7032076
:105A30006CE7032068E7032064E7032060E70320A6
:105A40005CE7032058E7032054E7032050E70320D6
:105A5000184B1A68D1075CBF01221A60164B1A68EE
:105A6000D2075CBF01221A60144B1A68D0075CBFD2
:105A700001221A60124B1A68D1075CBF01221A601A
:105A8000104B1A68D2075CBF01221A600E4B1A68CD
:105A9000D0075CBF01221A600C4B1A68D1075CBFAB
:105AA00001221A600A4B1A68D2075CBF01221A60F1
:105AB000704700BF9CE7032098E7032094E703208A
:105AC00090E703208CE7032088E7032084E7032086
:105AD00080E70320184B1A68D1075CBF01221A60C7
:105AE000164B1A68D2075CBF01221A60144B1A6861
:105AF000D0075CBF01221A60124B1A68D1075CBF45
:105B000001221A60104B1A68D2075CBF01221A608A
:105B10000E4B1A68D0075CBF01221A600C4B1A6842
:105B2000D1075CBF01221A600A4B1A68D2075CBF1A
:105B300001221A60704700BFBCE70320B8E70320CA
:105B4000B4E70320B0E70320ACE70320A8E7032075
:105B5000A4E70320A0E70320244B1A68D0075CBF0A
:105B600001221A60224B1A68D1075CBF01221A6019
:105B7000204B1A68D2075CBF01221A601E4B1A68BC
:105B8000D0075CBF01221A601C4B1A68D1075CBFAA
:105B900001221A601A4B1A68D2075CBF01221A60F0
:105BA000184B1A68D0075CBF01221A60164B1A689E
:105BB000D1075CBF01221A60144B1A68D2075CBF80
:105BC00001221A60124B1A68D0075CBF01221A60CA
:105BD000104B1A68D1075CBF01221A600E4B1A687D
:105BE000D2075CBF01221A60704700BFECE70320B8
:105BF000E8E70320E4E70320E0E70320DCE70320F5
:105C0000D8E70320D4E70320D0E70320CCE7032024
:105C1000C8E70320C4E70320C0E7032081F0004168
:105C200002E000BF83F0004330B54FEA41044FEA81
:105C3000430594EA050F08BF90EA020F1FBF54EA1C
:105C4000000C55EA020C7FEA645C7FEA655C00F0B8
:105C5000E2804FEA5454D4EB5555B8BF6D420CDD89
:105C60002C4480EA020281EA030382EA000083EA0C
:105C7000010180EA020281EA0303362D88BF30BDAC
:105C800011F0004F4FEA01314FF4801C4CEA113102
:105C900002D0404261EB410113F0004F4FEA033361
:105CA0004CEA133302D0524263EB430394EA050FEC
:105CB00000F0A780A4F10104D5F1200E0DDB02FA5B
:105CC0000EFC22FA05F2801841F1000103FA0EF2EF
:105CD000801843FA05F359410EE0A5F120050EF1B5
:105CE000200E012A03FA0EFC28BF4CF0020C43FAE6
:105CF00005F3C01851EBE37101F0004507D54FF0F3
:105D0000000EDCF1000C7EEB00006EEB0101B1F542
:105D1000801F1BD3B1F5001F0CD349085FEA300088
:105D20004FEA3C0C04F101044FEA445212F5800F93
:105D300080F09A80BCF1004F08BF5FEA500C50F130
:105D4000000041EB045141EA050130BD5FEA4C0C13
:105D5000404141EB010111F4801FA4F10104E9D19C
:105D600091F0000F04BF01460020B1FA81F308BF93
:105D70002033A3F10B03B3F120020CDA0C3208DD5F
:105D800002F1140CC2F10C0201FA0CF021FA02F13A
:105D90000CE002F11402D8BFC2F1200C01FA02F1AA
:105DA00020FA0CFCDCBF41EA0C019040E41AA2BFCF
:105DB00001EB0451294330BD6FEA04041F3C1CDA97
:105DC0000C340EDC04F11404C4F1200220FA04F0B7
:105DD00001FA02F340EA030021FA04F345EA030161
:105DE00030BDC4F10C04C4F1200220FA02F001FA23
:105DF00004F340EA0300294630BD21FA04F02946A5
:105E000030BD94F0000F83F4801306BF81F480113D
:105E10000134013D4EE77FEA645C18BF7FEA655CB0
:105E200029D094EA050F08BF90EA020F05D054EA82
:105E3000000C04BF1946104630BD91EA030F1EBF87
:105E40000021002030BD5FEA545C05D1400049418B
:105E500028BF41F0004130BD14F580043CBF01F57E
:105E6000801130BD01F0004545F0FE4141F4700164
:105E70004FF0000030BD7FEA645C1ABF194610463F
:105E80007FEA655C1CBF0B46024650EA013406BF40
:105E900052EA033591EA030F41F4002130BD00BFFF
:105EA00090F0000F04BF0021704730B54FF48064BC
:105EB00004F132044FF000054FF0000150E700BF3D
:105EC00090F0000F04BF0021704730B54FF480649C
:105ED00004F1320410F0004548BF40424FF0000189
:105EE0003EE700BF42004FEAE2014FEA31014FEACC
:105EF00002701FBF12F07F4393F07F4F81F060511B
:105F0000704792F0000F14BF93F07F4F704730B589
:105F10004FF4607401F0004521F0004120E700BF1C
:105F200050EA010208BF704730B54FF000050AE0A3
:105F300050EA010208BF704730B511F0004502D5A4
:105F4000404261EB41014FF4806404F132045FEAA6
:105F5000915C3FF4DCAE4FF003025FEADC0C18BF4B
:105F600003325FEADC0C18BF033202EBDC02C2F141
:105F7000200300FA03FC20FA02F001FA03FE40EAD3
:105F80000E0021FA02F11444C1E600BF70B54FF0D3
:105F9000FF0C4CF4E06C1CEA11541DBF1CEA1355B5
:105FA00094EA0C0F95EA0C0F00F0DEF82C4481EA1D
:105FB000030621EA4C5123EA4C5350EA013518BF3D
:105FC00052EA033541F4801143F4801338D0A0FB2A
:105FD00002CE4FF00005E1FB02E506F00042E0FBD7
:105FE00003E54FF00006E1FB03569CF0000F18BFDD
:105FF0004EF0010EA4F1FF04B6F5007F64F5407485
:1060000004D25FEA4E0E6D4146EB060642EAC62117
:1060100041EA55514FEAC52040EA5E504FEACE2E84
:10602000B4F1FD0C88BFBCF5E06F1ED8BEF1004F87
:1060300008BF5FEA500E50F1000041EB045170BD03
:1060400006F0004646EA010140EA020081EA030147
:10605000B4EB5C04C2BFD4EB0C0541EA045170BD43
:1060600041F480114FF0000E013C00F3AB8014F1BD
:10607000360FDEBF002001F0004170BDC4F1000406
:10608000203C35DA0C341BDC04F11404C4F1200587
:1060900000FA05F320FA04F001FA05F240EA0200E2
:1060A00001F0004221F0004110EBD37021FA04F618
:1060B00042EB06015EEA430E08BF20EAD37070BDD2
:1060C000C4F10C04C4F1200500FA04F320FA05F031
:1060D00001FA04F240EA020001F0004110EBD37033
:1060E00041F100015EEA430E08BF20EAD37070BDA3
:1060F000C4F1200500FA05F24EEA020E20FA04F37C
:1061000001FA05F243EA020321FA04F001F000412A
:1061100021FA04F220EA020000EBD3705EEA430E9B
:1061200008BF20EAD37070BD94F0000F0FD101F0CA
:106130000046400041EB010111F4801F08BF013C03
:10614000F7D041EA060195F0000F18BF704703F041
:106150000046520043EB030313F4801F08BF013DC8
:10616000F7D043EA0603704794EA0C0F0CEA135584
:1061700018BF95EA0C0F0CD050EA410618BF52EA3E
:106180004306D1D181EA030101F000414FF0000044
:1061900070BD50EA410606BF1046194652EA430652
:1061A00019D094EA0C0F02D150EA013613D195EAC6
:1061B0000C0F05D152EA03361CBF104619460AD10E
:1061C00081EA030101F0004141F0FE4141F4700118
:1061D0004FF0000070BD41F0FE4141F4780170BD08
:1061E00070B54FF0FF0C4CF4E06C1CEA11541DBF6D
:1061F0001CEA135594EA0C0F95EA0C0F00F0A7F86F
:10620000A4EB050481EA030E52EA03354FEA01319B
:1062100000F088804FEA03334FF0805545EA1313AE
:1062200043EA12634FEA022245EA111545EA106576
:106230004FEA00260EF000419D4208BF964244F10D
:10624000FD0404F5407402D25B084FEA3202B61A2C
:1062500065EB03055B084FEA32024FF480104FF400
:10626000002CB6EB020E75EB030E22BFB61A754674
:1062700040EA0C005B084FEA3202B6EB020E75EB07
:10628000030E22BFB61A754640EA5C005B084FEA6F
:106290003202B6EB020E75EB030E22BFB61A75463C
:1062A00040EA9C005B084FEA3202B6EB020E75EB47
:1062B000030E22BFB61A754640EADC0055EA060E08
:1062C00018D04FEA051545EA16754FEA06164FEA4B
:1062D000C30343EA52734FEAC2025FEA1C1CC0D1F7
:1062E00011F4801F0BD141EA00014FF000004FF084
:1062F000004CB6E711F4801F04BF01430020B4F145
:10630000FD0C88BFBCF5E06F3FF6AFAEB5EB030CFC
:1063100004BFB6EB020C5FEA500C50F1000041EBF9
:10632000045170BD0EF0004E4EEA113114EB5C04C6
:10633000C2BFD4EB0C0541EA045170BD41F4801199
:106340004FF0000E013C90E645EA060E8DE60CEAA1
:10635000135594EA0C0F08BF95EA0C0F3FF43BAFBE
:1063600094EA0C0F0AD150EA01347FF434AF95EA75
:106370000C0F7FF425AF104619462CE795EA0C0F59
:1063800006D152EA03353FF4FDAE1046194622E726
:1063900050EA410618BF52EA43067FF4C5AE50EA00
:1063A00041047FF40DAF52EA43057FF4EBAE12E7F0
:1063B0004FEA4102B2F1E04324BFB3F5001CDCF127
:1063C000FE5C0DD901F0004C4FEAC0024CEA50705F
:1063D000B2F1004F40EB830008BF20F0010070478E
:1063E00011F0804F21D113F13872BCBF01F0004091
:1063F000704741F480114FEA5252C2F11802C2F1C3
:10640000200C10FA0CF320FA02F018BF40F0010043
:106410004FEAC1234FEAD32303FA0CFC40EA0C00F5
:1064200023FA02F34FEA4303CCE77FEA625307D132
:1064300050EA01331EBF4FF0FE4040F44000704769
:1064400001F0004040F0FE4040F40000704700BF03
:1064500010B5054C13462CB10A4601460220AFF395
:10646000008010BD204610BD0000000010B5431E86
:106470000A44914204D011F8014B03F8014FF8E7A8
:1064800010BD02440346934202D003F8011BFAE711
:106490007047000038B5124B1C68A36B0546D3B992
:1064A0001820FEF7CDF943F20E33A06303804AF6BD
:1064B000CD33438041F2342383804EF26D63C38039
:1064C0004DF6EC630381052343810B238381012275
:1064D0000023C0E90423A36B00221D615A6138BD6B
:1064E000ACE30320034611F8012B03F8012B002A2B
:1064F000F9D17047024B0146186800F003B800BF9D
:10650000ACE3032070B5064608460C4600F00DF8D3
:10651000451C29463046FEF7B3F9064618B12A460F
:106520002146FFF7A3FF304670BD034613F8012B49
:10653000002AFBD1181A01387047000021400D00D5
:106540005D400D0089400D008D400D0000000000F1
:106550000000000000000000A9400D000000000045
:106560000000000000000000000000009D420D003F
:10657000E5420D00F9420D007D00222573223A20EC
:10658000252E326600222573223A20256900222515
:1065900073223A20256C750074656D7065726174A4
:1065A0007572650068756D696469747900766F6CE1
:1065B0007461676500616D6269656E63652F63690B
:1065C000676172626F780000000000000000000048
:1065D00015490D001B490D0071490D0029490D0099
:1065E00017490D0000000000000000002B4F0D00B7
:1065F000214F0D00174F0D000D4F0D00014F0D00E5
:10660000F54E0D00E94E0D00E14E0D00D74E0D0088
:10661000CD4E0D00D1520D00000000000000000022
:10662000494F0D00934F0D006B4F0D004B4F0D0068
:10663000734F0D007B4F0D00834F0D008B4F0D00EE
:10664000000000000000000021500D0011500D005E
:1066500013500D00626175640053657269616C00CE
:1066600053657269616C3100747970650070617294
:10667000616D00636D6400696400686E640073742A
:10668000726D0066696C74006C766C0061646448BD
:10669000616E646C65720072656D6F766548616EDF
:1066A000646C657200656E756D48616E646C6572D0
:1066B00073004A534F4E53747265616D4C6F674857
:1066C000616E646C657200617070002530313075E8
:1066D00020005D20002564002C200028293A20009D
:1066E000205B00636F6465203D2000646574616910
:1066F0006C73203D20000D0A006C6E00666E006316
:106700006F64650064657461696C006E6F6E65002E
:10671000747261636500696E666F007761726E0006
:106720006572726F720070616E696300616C6C00FB
:10673000000000000000000063510D0059510D00E1
:106740004F510D0045510D0039510D002D510D00D7
:1067500021510D0019510D000F510D0005510D0073
:10676000D1520D00000000000000000069520D0031
:1067700073520D007D520D0087520D0091520D0095
:106780009D520D00A9520D00B5520D00BD520D00D5
:10679000C7520D00D1520D000000000000000000A3
:1067A000B5540D00B7540D005A00252B3033643A10
:1067B000253032750025592D256D2D256454254829
:1067C0003A254D3A2553257A0061736374696D65E6
:1067D00000000000000000000000000021550D0036
:1067E00071550D007F550D00B1530D0035550D004D
:1067F00057550D0043550D006B550D0023550D00E9
:1068000027550D00000000000000000029560D0073
:1068100079560D0087560D00B1530D0065560D00D9
:106820002B560D0041560D0073560D0057560D00A6
:1068300025560D0000000000000000008B570D00E1
:1068400081570D0077570D002D570D006B570D0028
:106850005F570D0053570D004B570D0041570D006A
:1068600037570D00D1520D0000000000000000005D
:106870000000000000000000000000000000000018
:106880000000000000000000000000000000000008
:1068900000000000000000000000000000000000F8
:1068A00000000000000000000000000000000000E8
:1068B00000000000000000000000000000000000D8
:1068C00000000000000000004300000079420D00BD
:1068D00045440D0005490D00354F0D00F5500D00E4
:1068E00019520D009D530D0099540D00F5540D00E3
:1068F0000D550D0095570D0035590D008D590D00A2
:10690000515A0D00D55A0D00595B0D0000000000D2
:106910003C000000C9670D000000000068680D0021
:1069200088680D00A8680D0000000000000000004D
:106930000000000000000000C8680D00000000001A
:106940000000000000000000000000000000000047
:106950000000000000000000000000000000000037
:106960000000000000000000000000000000000027
:0C69700000000000000000004CE30320C9
:10697C00FFFFFFFF00000102030405060708090AD8
:10698C000B0C0D0E0F101112131415161718191AD3
:08699C001B1C1D1E1F2028001A
:0469A40078563412DB
:04000003D0004020C9
:00000001FF
