:02000004080AE8
:1000000000000A08D4260A080000060006000501C0
:0800100004027E05000000005F
:0400180044230A086B
:1000200009480A4908B5884205D0094A824202D0E7
:10003000121A02F043F90748074A0021121A02F087
:1000400048F9064808BD00BF0000002044260A0801
:100050006800002068000020F4050020F40500205E
:1000600070B500F073FF074B074C1E46E41AA40856
:100070000025A54204D056F8253098470135F8E709
:1000800070BD00BF00260A0838260A0800F0D8B85C
:1000900008B500F001F9BDE8084000F019BF00F014
:1000A00065BA0078B0FA80F0400970470123037008
:1000B00070470368C9B29B68184740228272C160CA
:1000C0000022032142600260017242727047000008
:1000D00070B5044690F90A10C06800F0ABFAF5213B
:1000E000E068FFF7E6FFE06800F0ABFA00283AD1DD
:1000F000142000F043FA00F0E3F8054600F0E0F8C1
:10010000401B63282FD8032294F90A10E06800F0FE
:1001100088FA032823D1E06803685B69984706469C
:10012000E06803685B6998470546E06803685B69B7
:10013000984745EA062080B201F094FE0C4901F090
:10014000E9FE4FF05E5101F0E5FE0A4901F0D8FDED
:100150000949044602F09AF838B9204670BD0620D5
:1001600000F00CFACAE7054870BD034870BD00BF37
:100170000000FA420000C0400000C8420000C07FFA
:1001800070B5044690F90A10C06800F053FAF321E4
:10019000E068FFF78EFFE06800F053FA002840D1D6
:1001A000142000F0EBF900F08BF8054600F088F819
:1001B000401B632835D8032294F90A10E06800F048
:1001C00030FA032829D1E06803685B69984706463E
:1001D000E06803685B6998470546E06803685B6907
:1001E000984745EA062080B201F03CFE01F0E8F9AC
:1001F0000DA3D3E9002301F037FA01F02DFD4FF0F4
:100200005E5101F087FE01F0DBF909A3D3E9002379
:1002100001F076F801F020FD70BD062000F0AEF987
:10022000C4E7054870BD00BFD7A3703D0AF765401D
:10023000CDCCCCCCCC6C47400000C07F00F048B89F
:1002400030B587B000F050FD114900F008FB00F018
:10025000A9FE014602A8FFF730FF02A8FFF790FFB2
:10026000054602A8FFF734FF00F03EFD094900F003
:10027000E3FA00F039FD0446284601F0A1F9022313
:10028000009302460B46204600F0F0FB07B030BD5D
:1002900058230A085F230A08704700F019B80000C5
:1002A00008B5024B1B681B6B019308BDD001060803
:1002B00008B5024B1B685B68019308BD9C010608EA
:1002C00008B5024B1B685B69019308BD9C010608D9
:1002D00008B5024B1B681B68019308BDB0010608F6
:1002E00008B5024B1B685B6D019308BDAC010608A5
:1002F00008B5024B1B689B6D019308BDAC01060855
:1003000008B5024B1B68DB6D019308BDAC01060804
:1003100008B5024B1B681B6E019308BDAC010608B3
:1003200008B5024B1B685B6E019308BDAC01060863
:1003300008B5024B1B689B6E019308BDAC01060813
:1003400008B5024B1B68DB6E019308BDAC010608C3
:1003500008B5024B1B681B6F019308BDAC01060872
:1003600008B5034B1B68D3F88030019308BD00002B
:10037000AC01060808B5024B1B68DB69019308BD98
:10038000B401060808B5024B1B689B69019308BDC0
:10039000C401060808B5024B1B685B6A019308BDDF
:1003A000C401060808B5024B1B689B6A019308BD8F
:1003B000C401060808B5024B1B68DB6A019308BD3F
:1003C000C401060808B5024B1B681B6B019308BDEE
:1003D000C401060808B5024B1B685B6B019308BD9E
:1003E000C401060808B5024B1B681B6C019308BDCD
:1003F000C401060808B5024B1B681B68019308BDC1
:10040000D801060808B5024B1B681B69019308BD9B
:10041000D801060808B5024B1B685B69019308BD4B
:10042000D801060808B5024B1B689B69019308BDFB
:10043000D801060808B5024B1B68DB69019308BDAB
:10044000D801060808B5024B1B681B6A019308BD5A
:10045000D801060808B5024B1B689B6C019308BDC8
:10046000C001060808B5024B1B685B68019308BD14
:10047000A401060808B5024B1B685B69019308BD1F
:10048000A401060808B5034B1B68D3F8903001930C
:1004900008BD0000A401060808B5034B1B68D3F88B
:1004A0009C30019308BD0000A401060808B5024B6A
:1004B0001B68DB6B019308BDCC01060808B5024B35
:1004C0001B685B68019308BDC801060808B5024BAC
:1004D0001B689B68019308BDC801060808B5024B5C
:1004E0001B68DB68019308BDC801060808B5024B0C
:1004F0001B681B69019308BDC801060808B5024BBB
:100500001B685B69019308BDC801060808B5024B6A
:100510001B689B69019308BDC801060808B5024B1A
:100520001B68DB69019308BDC801060808B5024BCA
:100530001B681B6A019308BDC801060808B5024B79
:100540001B681B6B019308BDC801060808B5024B68
:100550001B685B6B019308BDC801060808B5024B18
:100560001B681B68019308BDA001060808B5024B73
:100570001B685B68019308BDA00106080021FFF716
:1005800079BF10B58368044613B10322014698472A
:10059000204610BD7047F8B5064615460C468F1824
:1005A000BC4206D0336814F8011B9B68304698475C
:1005B000F6E72846F8BD0022007CFFF7A9BE00211F
:1005C000007CFFF7ADBE0021007CFFF7B1BE00212B
:1005D000007CFFF7B5BE0021007CFFF7B9BE10B567
:1005E0000446142100F03DFD204610BD10B5044620
:1005F00008464FF47A73A360044B002120746160B5
:100600002360FFF7ADFE204610BD00BF70230A082F
:1006100013B50024007C0094FFF762FEC0B202B064
:1006200010BD0123D2B2C9B2FFF7F2BF0022007C95
:10063000FFF75EBEC9B2FFF7F9BF0022007CFFF7EB
:100640005FBE0121FFF7F9BF704710B504461821BE
:1006500000F007FD204610BDF8B50F4600F1080672
:10066000051D002416F8011D0A22384600F02BF95A
:10067000AE42044407D0002CF4D02E21384600F0BE
:10068000DFF80444EEE72046F8BD000010B504464C
:10069000044B112240F8043B002101F01AFE2046D1
:1006A00010BD00BF98230A080346074A10B543F857
:1006B000042B01F1100251F8044B914243F8044B12
:1006C000F9D10A781A7010BD98230A08024A4160CD
:1006D000026004220275704798230A0810B59DF83D
:1006E000084044EA032343EA024242EA0161042348
:1006F0004160037510BD000037B5044D05609DF8DD
:1007000018500095FFF7EAFF03B030BD98230A08A0
:10071000014A024B1A6070471A240A086C00002034
:1007200000231A464068FFF7C9BE00220221406834
:10073000FFF7D4BE002211464068FFF7C7BE002273
:1007400011464068FFF7D2BE00231A46194640689A
:10075000FFF7D4BE00231A4619464068FFF7D6BEFD
:10076000002281F001014068FFF7D8BE00224068F6
:10077000FFF7E4BE002211464068FFF7E7BE002203
:1007800011464068FFF7D2BE70B516468EB00446DB
:1007900008A8FFF77BFF1122002103A801F099FDB3
:1007A000304601F0C7FD00250A4B009581B25B6819
:1007B00003AA3046FFF74EFE20B129462046FFF738
:1007C00085FF03E003A92046FFF76EFF20460EB029
:1007D00070BD00BFF0040020024B034A1A600022E3
:1007E0005A6070477000002090240A08F8B5064649
:1007F0000D468F180024BD420CD0336815F8011B3C
:100800009B6830469847002801DB0444F3E7002C3E
:1008100008BF04462046F8BD70B505460C4608469C
:1008200049B101F087FD2B68024621462846BDE804
:100830007040DB68184770BD08B5FFF7EDFF08BDD5
:1008400003689B68184738B50D210546FFF7F8FF88
:100850000A2104462846FFF7F3FF204438BD38B587
:100860000546FFF7D9FF04462846FFF7ECFF204472
:1008700038BD012A98BF0A2230B50B468BB0002143
:100880008DF824100DF12304B3FBF2F505FB1233B0
:10089000DBB2092B94BF30333733DBB2214604F887
:1008A00001392B46002DEFD1FFF7B6FF0BB030BD5D
:1008B00010B422B90368C9B29B6810BC1847D2B201
:1008C00010BCFFF7D6BFFFF7F3BF2DE9F041074695
:1008D0000E4615462AB9BDE8F0410368C9B29B68C7
:1008E00018470A2A02D1002901DA04E0D2B2BDE891
:1008F000F041FFF7BEBF2D21FFF7A2FF2A460446B5
:1009000071423846FFF7B5FF2044BDE8F081000092
:100910002DE9F84319468046104617461E469DF8B5
:10092000205001F03BF908B1474912E026F000449D
:100930004FF0FF32454B3846214601F02FF968B998
:100940004FF0FF32414B3846214601F009F928B9F2
:100950003F494046FFF760FFBDE8F8834FF0604233
:100960003C4B3846314601F00FF908B13A49F0E7FF
:100970004FF06042394B3846314601F0E7F8002825
:10098000F4D1002200233846314601F0DFF838B1B7
:100990002D214046FFF754FF06F10046044600E0D3
:1009A00004462F494FF0000900205FFA89F39D4269
:1009B00006D900222B4B00F081FF09F10109F4E771
:1009C0003A46334600F09EFC0F46064601F024F9F5
:1009D0000A22014681464046FFF74BFF04447DB39F
:1009E000484600F0CBFD02460B463046394600F043
:1009F00087FC06460F4640461B49FFF70DFF04449F
:100A0000184B00223046394600F02EFE0F460646AF
:100A100001F0DAF80A22014681464046FFF755FF09
:100A20000444484600F0BAFD02460B4630463946BB
:100A300000F066FC013D15F0FF0506460F46DFD1CC
:100A40002046BDE8F88300BFBC240A08FFFFEF7F03
:100A5000C6240A08FFFFEF41C0240A08FFFFEFC1C8
:100A60000000E03F00002440C4240A0837B59DF888
:100A7000181005460091FFF74BFF04462846FFF784
:100A8000E2FE204403B030BD10B50446FFF779FD07
:100A9000204610BD034800238360034A034900F049
:100AA000DBBA00BF7800002068000020890A0A082D
:100AB000704710B50446102100F0D3FA204610BD4F
:100AC00070B504460E46074B0025036040F80C5FE6
:100AD000FFF7E6FB30462671FFF74CFCA560204689
:100AE00070BD00BFD4240A084FF6FF72034B0020EC
:100AF000187058809A80FFF7B5BC00BF88000020AE
:100B0000024B1A68024B1A60704700BF00000020B9
:100B10009000002070474174704708B5007CFFF7D3
:100B200061FC20EAE07008BD08B5007CFFF73AFCE4
:100B300020EAE07008BD08B5007CFFF743FC30EA0E
:100B4000200028BF4FF0FF3008BD08B5007CFFF73C
:100B500031FC30EA200028BF4FF0FF3008BD007C98
:100B6000FFF738BC10B50446142100F07AFA20468D
:100B700010BD70B5457C04460E4625B9007CFFF7D4
:100B800031FC002805DD3146207CBDE87040FFF7D0
:100B900001BC284670BD000010B504460846114649
:100BA000002262604FF47A72A260054A20742260CB
:100BB000012262741A46FFF7E5FB204610BD00BF14
:100BC00010250A0838B50C4D296811F0010411D11F
:100BD0002846FFF766FA68B1084A2146084B0948DB
:100BE000FFF7DAFF2846FFF761FA074A0749054889
:100BF00000F032FA034838BD2C01002030010020FB
:100C0000A80000209400002068000020150B0A08AE
:100C100041747047704708B50021007CFFF702FC63
:100C200030EA200028BF4FF0FF3008BD08B5012191
:100C3000007CFFF7F7FB30EA200028BF4FF0FF30C1
:100C400008BD08B5007CFFF7E5FB20EAE07008BDB1
:100C500008B5007CFFF7D6FB20EAE07008BD007CF9
:100C6000FFF7F0BB10B50446142100F0FAF9204656
:100C700010BD38B50446007C0D46FFF7CBFB0028BD
:100C800001DC607C28B12946207CFFF7D3FB20EAF9
:100C9000E07038BD10B50446002363604FF47A73EA
:100CA000A360054B08462360012321746374114639
:100CB000FFF7A0FB204610BD40250A0810B50446EA
:100CC0001422002101F005FB054B20466360054B13
:100CD000E36040F2011323818123238210BD00BF12
:100CE00039020020B801002030B50E4D87B001A8B0
:100CF000FFF7E4FF296811F0010410D12846FFF73F
:100D0000D0F960B101AA21460748FFF7C3FF284682
:100D1000FFF7CCF9054A0649034800F09DF902485F
:100D200007B030BDB40100203C0300206800002063
:100D3000150C0A0810B504461422002101F0C9FA66
:100D4000054B20466360054BE36040F201132381AD
:100D50008123238210BD00BFEC0300205403002038
:100D600010B50E4C86B001A8FFF7E4FF2368DB073F
:100D700010D42046FFF795F960B101AA0121084877
:100D8000FFF788FF2046FFF791F9064A0649044815
:100D900000F062F9024806B010BD00BF5003002009
:100DA000D803002068000020150C0A080022114614
:100DB0004068FFF79BBBF0B5164689B011220F467D
:100DC0000446002103A801F084FA304601F0B2FA8B
:100DD0000025009581B27B6803AA3046FFF73AFBF5
:100DE00020B129462046FFF771FC03E003A9204605
:100DF000FFF75AFC204609B0F0BD002211464068BA
:100E0000FFF794BB002211464068FFF79FBB00220A
:100E10004068FFF793BB002281F001014068FFF7B3
:100E20007DBB00231A4619464068FFF76FBB0023BD
:100E30001A4619464068FFF761BB00221146406818
:100E4000FFF744BB002202214068FFF747BB0023A5
:100E50001A464068FFF732BB024B04225A60024A2E
:100E60001A607047F004002070250A0808B5144B7A
:100E700033B1FFF739FF03681B699847002816DC78
:100E8000104B33B1FFF79EFE03681B69984700289B
:100E900010DC0D4B0BB1AFF300800C4B7BB1FFF7B7
:100EA0005FFF03681B699847002806DC08BDAFF3A5
:100EB0000080E5E7AFF30080EBE7AFF3008008BD0B
:100EC0000000000000000000000000000000000022
:100ED00008B5FFF7CBFFFFF7F3F9014B186008BD2A
:100EE000000500200248034A0349121A01F0E6B93E
:100EF000004002400440024040260A0807B5002393
:100F000000931A466FF07701FFF7C6FA03B05DF859
:100F100004FB000007B543880A2B08D0502B09D1E9
:100F2000094B1B683BB103B05DF804EB1847FFF7B2
:100F3000E5FF06E0002300931A466FF07701FFF704
:100F4000ABFA03B05DF804FBF804002038B5104C90
:100F5000104D2368AB42104B0CBF012200221A70C7
:100F600002D0FFF7BFFF2560FFF7A2F9044601F0AA
:100F7000B9F90A4B13B12046AFF3008000210748AE
:100F8000FFF794FABDE8384000210548FFF77ABA28
:100F9000004002401E1C279AFC04002000000000B4
:100FA000150F0A0838B50B4D296811F001040FD14F
:100FB0002846FFF776F858B121460748FFF716FB99
:100FC0002846FFF773F8054A0549034800F044F83E
:100FD000014838BD040500200805002068000020F5
:100FE00095050A0813B5084C00231A4619460093C4
:100FF0002046FFF781FB2046044A054902B0BDE8C0
:10100000104000F029B800BF1C0500206800002037
:1010100049060A0870B50C4C0C4E0D4D00212046B7
:10102000FFF74EFD20460B4C3246294600F014F8DF
:1010300001212046FFF744FD324629462046BDE8FF
:10104000704000F009B800BF34050020680000209F
:10105000B10A0A08440500200B460146184601F073
:101060001FB9FFF71CB80000244B1A68D0075CBFFB
:1010700001221A60224B1A68D1075CBF01221A6054
:10108000204B1A68D2075CBF01221A601E4B1A68F7
:10109000D0075CBF01221A601C4B1A68D1075CBFE5
:1010A00001221A601A4B1A68D2075CBF01221A602B
:1010B000184B1A68D0075CBF01221A60164B1A68D9
:1010C000D1075CBF01221A60144B1A68D2075CBFBB
:1010D00001221A60124B1A68D0075CBF01221A6005
:1010E000104B1A68D1075CBF01221A600E4B1A68B8
:1010F000D2075CBF01221A60704700BF8005002044
:101100007C05002078050020740500207005002073
:101110006C050020680500206405002060050020A3
:101120005C0500205805002054050020184B1A6863
:10113000D1075CBF01221A60164B1A68D2075CBF48
:1011400001221A60144B1A68D0075CBF01221A6092
:10115000124B1A68D1075CBF01221A60104B1A6843
:10116000D2075CBF01221A600E4B1A68D0075CBF21
:1011700001221A600C4B1A68D1075CBF01221A6069
:101180000A4B1A68D2075CBF01221A60704700BF81
:10119000A00500209C050020980500209405002053
:1011A000900500208C050020880500208405002083
:1011B000184B1A68D1075CBF01221A60164B1A68D7
:1011C000D2075CBF01221A60144B1A68D0075CBFBB
:1011D00001221A60124B1A68D1075CBF01221A6003
:1011E000104B1A68D2075CBF01221A600E4B1A68B6
:1011F000D0075CBF01221A600C4B1A68D1075CBF94
:1012000001221A600A4B1A68D2075CBF01221A60D9
:10121000704700BFC0050020BC050020B8050020B5
:10122000B4050020B0050020AC050020A805002072
:10123000A4050020244B1A68D0075CBF01221A6065
:10124000224B1A68D1075CBF01221A60204B1A6832
:10125000D2075CBF01221A601E4B1A68D0075CBF20
:1012600001221A601C4B1A68D1075CBF01221A6068
:101270001A4B1A68D2075CBF01221A60184B1A6811
:10128000D0075CBF01221A60164B1A68D1075CBFF9
:1012900001221A60144B1A68D2075CBF01221A603F
:1012A000124B1A68D0075CBF01221A60104B1A68F3
:1012B000D1075CBF01221A600E4B1A68D2075CBFCF
:1012C00001221A60704700BFF0050020EC050020E5
:1012D000E8050020E4050020E0050020DC050020F2
:1012E000D8050020D4050020D0050020CC05002022
:1012F000C8050020C405002081F0004102E000BFC5
:1013000083F0004330B54FEA41044FEA430594EAC5
:10131000050F08BF90EA020F1FBF54EA000C55EA00
:10132000020C7FEA645C7FEA655C00F0E2804FEAD1
:101330005454D4EB5555B8BF6D420CDD2C4480EAB3
:10134000020281EA030382EA000083EA010180EAE3
:10135000020281EA0303362D88BF30BD11F0004F31
:101360004FEA01314FF4801C4CEA113102D0404267
:1013700061EB410113F0004F4FEA03334CEA1333A2
:1013800002D0524263EB430394EA050F00F0A780BA
:10139000A4F10104D5F1200E0DDB02FA0EFC22FAB5
:1013A00005F2801841F1000103FA0EF2801843FAA9
:1013B00005F359410EE0A5F120050EF1200E012A9A
:1013C00003FA0EFC28BF4CF0020C43FA05F3C018D8
:1013D00051EBE37101F0004507D54FF0000EDCF151
:1013E000000C7EEB00006EEB0101B1F5801F1BD3FA
:1013F000B1F5001F0CD349085FEA30004FEA3C0CFE
:1014000004F101044FEA445212F5800F80F09A80F3
:10141000BCF1004F08BF5FEA500C50F1000041EBF7
:10142000045141EA050130BD5FEA4C0C404141EBFB
:10143000010111F4801FA4F10104E9D191F0000F22
:1014400004BF01460020B1FA81F308BF2033A3F1A5
:101450000B03B3F120020CDA0C3208DD02F1140C9C
:10146000C2F10C0201FA0CF021FA02F10CE002F1D7
:101470001402D8BFC2F1200C01FA02F120FA0CFCD0
:10148000DCBF41EA0C019040E41AA2BF01EB045119
:10149000294330BD6FEA04041F3C1CDA0C340EDC17
:1014A00004F11404C4F1200220FA04F001FA02F35A
:1014B00040EA030021FA04F345EA030130BDC4F118
:1014C0000C04C4F1200220FA02F001FA04F340EA0D
:1014D0000300294630BD21FA04F0294630BD94F0BE
:1014E000000F83F4801306BF81F480110134013DA5
:1014F0004EE77FEA645C18BF7FEA655C29D094EA16
:10150000050F08BF90EA020F05D054EA000C04BF93
:101510001946104630BD91EA030F1EBF002100207E
:1015200030BD5FEA545C05D14000494128BF41F01D
:10153000004130BD14F580043CBF01F5801130BD81
:1015400001F0004545F0FE4141F470014FF000000C
:1015500030BD7FEA645C1ABF194610467FEA655CBD
:101560001CBF0B46024650EA013406BF52EA03355F
:1015700091EA030F41F4002130BD00BF90F0000F4D
:1015800004BF0021704730B54FF4806404F1320489
:101590004FF000054FF0000150E700BF90F0000F42
:1015A00004BF0021704730B54FF4806404F1320469
:1015B00010F0004548BF40424FF000013EE700BF39
:1015C00042004FEAE2014FEA31014FEA02701FBFC9
:1015D00012F07F4393F07F4F81F06051704792F09B
:1015E000000F14BF93F07F4F704730B54FF4607415
:1015F00001F0004521F0004120E700BF50EA010260
:1016000008BF704730B54FF000050AE050EA01020C
:1016100008BF704730B511F0004502D5404261EB7C
:1016200041014FF4806404F132045FEA915C3FF4BD
:10163000DCAE4FF003025FEADC0C18BF03325FEA56
:10164000DC0C18BF033202EBDC02C2F1200300FA0B
:1016500003FC20FA02F001FA03FE40EA0E0021FA30
:1016600002F11444C1E600BF70B54FF0FF0C4CF41A
:10167000E06C1CEA11541DBF1CEA135594EA0C0FD0
:1016800095EA0C0F00F0DEF82C4481EA030621EA0B
:101690004C5123EA4C5350EA013518BF52EA033546
:1016A00041F4801143F4801338D0A0FB02CE4FF0F8
:1016B0000005E1FB02E506F00042E0FB03E54FF028
:1016C0000006E1FB03569CF0000F18BF4EF0010E20
:1016D000A4F1FF04B6F5007F64F5407404D25FEA1C
:1016E0004E0E6D4146EB060642EAC62141EA5551CF
:1016F0004FEAC52040EA5E504FEACE2EB4F1FD0C11
:1017000088BFBCF5E06F1ED8BEF1004F08BF5FEA8E
:10171000500E50F1000041EB045170BD06F0004640
:1017200046EA010140EA020081EA0301B4EB5C04ED
:10173000C2BFD4EB0C0541EA045170BD41F48011E5
:101740004FF0000E013C00F3AB8014F1360FDEBF0A
:10175000002001F0004170BDC4F10004203C35DAE6
:101760000C341BDC04F11404C4F1200500FA05F369
:1017700020FA04F001FA05F240EA020001F000420A
:1017800021F0004110EBD37021FA04F642EB060180
:101790005EEA430E08BF20EAD37070BDC4F10C04AA
:1017A000C4F1200500FA04F320FA05F001FA04F26E
:1017B00040EA020001F0004110EBD37041F100015A
:1017C0005EEA430E08BF20EAD37070BDC4F1200565
:1017D00000FA05F24EEA020E20FA04F301FA05F2CD
:1017E00043EA020321FA04F001F0004121FA04F275
:1017F00020EA020000EBD3705EEA430E08BF20EA45
:10180000D37070BD94F0000F0FD101F0004640007E
:1018100041EB010111F4801F08BF013CF7D041EA00
:10182000060195F0000F18BF704703F00046520004
:1018300043EB030313F4801F08BF013DF7D043EAD5
:101840000603704794EA0C0F0CEA135518BF95EA8B
:101850000C0F0CD050EA410618BF52EA4306D1D112
:1018600081EA030101F000414FF0000070BD50EA31
:10187000410606BF1046194652EA430619D094EABB
:101880000C0F02D150EA013613D195EA0C0F05D1A5
:1018900052EA03361CBF104619460AD181EA0301F9
:1018A00001F0004141F0FE4141F470014FF00000B1
:1018B00070BD41F0FE4141F4780170BD70B54FF04C
:1018C000FF0C4CF4E06C1CEA11541DBF1CEA1355CC
:1018D00094EA0C0F95EA0C0F00F0A7F8A4EB0504AE
:1018E00081EA030E52EA03354FEA013100F08880A5
:1018F0004FEA03334FF0805545EA131343EA12636E
:101900004FEA022245EA111545EA10654FEA002622
:101910000EF000419D4208BF964244F1FD0404F5DB
:10192000407402D25B084FEA3202B61A65EB030537
:101930005B084FEA32024FF480104FF4002CB6EBF4
:10194000020E75EB030E22BFB61A754640EA0C0074
:101950005B084FEA3202B6EB020E75EB030E22BFB4
:10196000B61A754640EA5C005B084FEA3202B6EBF5
:10197000020E75EB030E22BFB61A754640EA9C00B4
:101980005B084FEA3202B6EB020E75EB030E22BF84
:10199000B61A754640EADC0055EA060E18D04FEA42
:1019A000051545EA16754FEA06164FEAC30343EAE2
:1019B00052734FEAC2025FEA1C1CC0D111F4801FAF
:1019C0000BD141EA00014FF000004FF0004CB6E7A8
:1019D00011F4801F04BF01430020B4F1FD0C88BF47
:1019E000BCF5E06F3FF6AFAEB5EB030C04BFB6EB52
:1019F000020C5FEA500C50F1000041EB045170BD45
:101A00000EF0004E4EEA113114EB5C04C2BFD4EB71
:101A10000C0541EA045170BD41F480114FF0000EF5
:101A2000013C90E645EA060E8DE60CEA135594EA71
:101A30000C0F08BF95EA0C0F3FF43BAF94EA0C0F74
:101A40000AD150EA01347FF434AF95EA0C0F7FF4E9
:101A500025AF104619462CE795EA0C0F06D152EA3D
:101A600003353FF4FDAE1046194622E750EA410621
:101A700018BF52EA43067FF4C5AE50EA41047FF432
:101A80000DAF52EA43057FF4EBAE12E74FF0FF3C97
:101A900006E000BF4FF0010C02E000BF4FF0010C68
:101AA0004DF804CD4FEA410C7FEA6C5C4FEA430CE1
:101AB00018BF7FEA6C5C1BD001B050EA410C0CBF30
:101AC00052EA430C91EA030F02BF90EA020F002092
:101AD000704710F1000F91EA030F58BF994208BFF9
:101AE00090422CBFD8176FEAE37040F001007047B6
:101AF0004FEA410C7FEA6C5C02D150EA013C07D10D
:101B00004FEA430C7FEA6C5CD6D152EA033CD3D057
:101B10005DF8040B704700BF8446104662468C4651
:101B20001946634600E000BF01B5FFF7B7FF002884
:101B300048BF10F1000F01BD4DF808EDFFF7F4FFAD
:101B40000CBF012000205DF808FB00BF4DF808ED38
:101B5000FFF7EAFF34BF012000205DF808FB00BF5B
:101B60004DF808EDFFF7E0FF94BF012000205DF87D
:101B700008FB00BF4DF808EDFFF7CEFF94BF012032
:101B800000205DF808FB00BF4DF808EDFFF7C4FF2B
:101B900034BF012000205DF808FB00BF4FEA410C74
:101BA0007FEA6C5C02D150EA013C0AD14FEA430C57
:101BB0007FEA6C5C02D152EA033C02D14FF0000094
:101BC00070474FF0010070474FEA410212F50012D2
:101BD00015D211D56FF47873B3EB625212D94FEA74
:101BE000C12343F0004343EA505311F0004F23FA5E
:101BF00002F018BF404270474FF00000704750EAB3
:101C0000013005D111F0004008BF6FF0004070476F
:101C10004FF00000704700BF4A0011D212F50012C9
:101C200011D20DD56FF47873B3EB62520ED44FEA34
:101C3000C12343F0004343EA505323FA02F07047B4
:101C40004FF00000704750EA013002D14FF0FF30F2
:101C500070474FF0000070474FEA4102B2F1E04395
:101C600024BFB3F5001CDCF1FE5C0DD901F0004C83
:101C70004FEAC0024CEA5070B2F1004F40EB8300D3
:101C800008BF20F00100704711F0804F21D113F1FF
:101C90003872BCBF01F00040704741F480114FEA38
:101CA0005252C2F11802C2F1200C10FA0CF320FAC1
:101CB00002F018BF40F001004FEAC1234FEAD323DE
:101CC00003FA0CFC40EA0C0023FA02F34FEA430348
:101CD000CCE77FEA625307D150EA01331EBF4FF0D1
:101CE000FE4040F44000704701F0004040F0FE40EC
:101CF00040F40000704700BF80F0004002E000BFE9
:101D000081F0004142001FBF5FEA410392EA030FE6
:101D10007FEA226C7FEA236C6AD04FEA1262D2EB30
:101D20001363C1BFD218414048404140B8BF5B4235
:101D3000192B88BF704710F0004F40F4000020F0CE
:101D40007F4018BF404211F0004F41F4000121F0E4
:101D50007F4118BF494292EA030F3FD0A2F101022E
:101D600041FA03FC10EB0C00C3F1200301FA03F16C
:101D700000F0004302D5494260EB4000B0F5000F8F
:101D800013D3B0F1807F06D340084FEA310102F14E
:101D90000102FE2A51D2B1F1004F40EBC25008BF00
:101DA00020F0010040EA03007047490040EB0000CA
:101DB00010F4000FA2F10102EDD1B0FA80FCACF1F9
:101DC000080CB2EB0C0200FA0CF0AABF00EBC250F8
:101DD00052421843BCBFD0401843704792F0000FE6
:101DE00081F4000106BF80F400000132013BB5E739
:101DF0004FEA41037FEA226C18BF7FEA236C21D0AF
:101E000092EA030F04D092F0000F08BF0846704713
:101E100090EA010F1CBF0020704712F07F4F04D1E1
:101E2000400028BF40F00040704712F100723CBFF4
:101E300000F50000704700F0004343F0FE4040F41E
:101E4000000070477FEA226216BF08467FEA2363DC
:101E50000146420206BF5FEA412390EA010F40F4C7
:101E6000800070474FF0000304E000BF10F0004313
:101E700048BF40425FEA000C08BF704743F09643FA
:101E800001464FF000001CE050EA010208BF704715
:101E90004FF000030AE000BF50EA010208BF70479C
:101EA00011F0004302D5404261EB41015FEA010CB1
:101EB00002BF84460146002043F0B64308BFA3F1A9
:101EC0008053A3F50003BCFA8CF2083AA3EBC2538B
:101ED00010DB01FA02FC634400FA02FCC2F12002AA
:101EE000BCF1004F20FA02F243EB020008BF20F0E1
:101EF0000100704702F1200201FA02FCC2F1200247
:101F000050EA4C0021FA02F243EB020008BF20EA3B
:101F1000DC7070474FF0FF0C1CEAD0521EBF1CEA69
:101F2000D15392EA0C0F93EA0C0F6FD01A4480EA57
:101F3000010C400218BF5FEA41211ED04FF0006340
:101F400043EA501043EA5111A0FB01310CF000406C
:101F5000B1F5000F3EBF490041EAD3715B0040EA92
:101F6000010062F17F02FD2A1DD8B3F1004F40EB62
:101F7000C25008BF20F00100704790F0000F0CF035
:101F8000004C08BF49024CEA502040EA51207F3AF9
:101F9000C2BFD2F1FF0340EAC250704740F40000D4
:101FA0004FF00003013A5DDC12F1190FDCBF00F0C5
:101FB00000407047C2F10002410021FA02F1C2F173
:101FC000200200FA02FC5FEA310040F1000053EA0F
:101FD0004C0308BF20EADC70704792F0000F00F05D
:101FE000004C02BF400010F4000F013AF9D040EA63
:101FF0000C0093F0000F01F0004C02BF490011F4F7
:10200000000F013BF9D041EA0C018FE70CEAD153F4
:1020100092EA0C0F18BF93EA0C0F0AD030F0004C74
:1020200018BF31F0004CD8D180EA010000F0004028
:10203000704790F0000F17BF90F0004F084691F0E6
:10204000000F91F0004F14D092EA0C0F01D1420220
:102050000FD193EA0C0F03D14B0218BF084608D1E9
:1020600080EA010000F0004040F0FE4040F4000033
:10207000704740F0FE4040F4400070474FF0FF0CC6
:102080001CEAD0521EBF1CEAD15392EA0C0F93EA0D
:102090000C0F69D0A2EB030280EA010C49024FEA5F
:1020A000402037D04FF0805343EA111143EA101318
:1020B0000CF000408B4238BF5B0042F17D024FF4D0
:1020C000000C8B4224BF5B1A40EA0C00B3EB510FAB
:1020D00024BFA3EB510340EA5C00B3EB910F24BF94
:1020E000A3EB910340EA9C00B3EBD10F24BFA3EB19
:1020F000D10340EADC001B0118BF5FEA1C1CE0D1E1
:10210000FD2A3FF650AF8B4240EBC25008BF20F093
:10211000010070470CF0004C4CEA50207F32C2BFE7
:10212000D2F1FF0340EAC250704740F400004FF084
:102130000003013A37E792F0000F00F0004C02BFB5
:10214000400010F4000F013AF9D040EA0C0093F07F
:10215000000F01F0004C02BF490011F4000F013BD9
:10216000F9D041EA0C0195E70CEAD15392EA0C0F41
:1021700008D142027FF47DAF93EA0C0F7FF470AF79
:10218000084676E793EA0C0F04D14B023FF44CAFBC
:1021900008466EE730F0004C18BF31F0004CCAD151
:1021A00030F000427FF45CAF31F000437FF43CAF8D
:1021B0005FE700BF4FF0FF3C06E000BF4FF0010CAF
:1021C00002E000BF4FF0010C4DF804CD4FEA400291
:1021D0004FEA41037FEA226C18BF7FEA236C11D0DB
:1021E00001B052EA530C18BF90EA010F58BFB2EB8E
:1021F000030088BFC81738BF6FEAE17018BF40F00E
:10220000010070477FEA226C02D15FEA402C05D1C1
:102210007FEA236CE4D15FEA412CE1D05DF8040B46
:10222000704700BF844608466146FFE70FB5FFF7D9
:10223000C9FF002848BF10F1000F0FBD4DF808ED91
:10224000FFF7F4FF0CBF012000205DF808FB00BF82
:102250004DF808EDFFF7EAFF34BF012000205DF8DC
:1022600008FB00BF4DF808EDFFF7E0FF94BF012029
:1022700000205DF808FB00BF4DF808EDFFF7D2FF26
:1022800094BF012000205DF808FB00BF4DF808ED69
:10229000FFF7C8FF34BF012000205DF808FB00BF36
:1022A00010B5054C13462CB10A4601460220AFF387
:1022B000008010BD204610BD0000000010B5431E78
:1022C0000A44914204D011F8014B03F8014FF8E79A
:1022D00010BD03460244934202D003F8011BFAE703
:1022E0007047000038B5124B05461C68A36BD3B984
:1022F0001820FEF733F943F20E33A06303804AF649
:10230000CD33438041F2342383804EF26D63C3802A
:102310004DF6EC630381052343810B238381012266
:102320000023C0E90423A36B00221D615A6138BD5C
:1023300064000020034613F8012B002AFBD1181A71
:102340000138704721000A0861000A088D000A0858
:1023500091000A080000000048656C6C6F21007451
:10236000656D703A200000000000000000000000D1
:1023700095050A08DF050A08B7050A0897050A083F
:10238000BF050A08C7050A08CF050A08D7050A08C5
:10239000000000000000000059060A0849060A086B
:1023A0004B060A08626175640053657269616C00CE
:1023B00055534253657269616C31007479706500E0
:1023C000706172616D00636D6400696400686E64C1
:1023D000007374726D0066696C74006C766C0061D9
:1023E000646448616E646C65720072656D6F7665D9
:1023F00048616E646C657200656E756D48616E64EF
:102400006C657273004A534F4E53747265616D4C24
:102410006F6748616E646C65720061707000253092
:1024200031307520005D20002564002C2000282913
:102430003A2000205B00636F6465203D2000256921
:102440000064657461696C73203D20000D0A006CA6
:102450006E00666E00636F64650064657461696C2C
:10246000006E6F6E6500747261636500696E666F01
:10247000007761726E006572726F720070616E69D2
:102480006300616C6C0000000000000000000000B0
:1024900021070A082B070A0835070A083F070A0818
:1024A00049070A0855070A0861070A086D070A085C
:1024B00075070A087F070A0889070A086E616E0017
:1024C0006F7666002E00696E660000000000000056
:1024D00000000000B10A0A08B30A0A085A00252BB6
:1024E0003033643A253032750025592D256D2D2560
:1024F000645425483A254D3A2553257A0061736383
:1025000074696D650000000000000000000000001C
:10251000150B0A08650B0A08730B0A08ED070A0871
:10252000290B0A084B0B0A08370B0A085F0B0A082D
:10253000170B0A081B0B0A0800000000000000002F
:10254000150C0A08650C0A08730C0A08ED070A083E
:10255000510C0A08170C0A082D0C0A085F0C0A080F
:10256000430C0A08110C0A080000000000000000DB
:102570004F0E0A08450E0A083B0E0A08AD0D0A0860
:102580002F0E0A08230E0A08170E0A080F0E0A0853
:10259000050E0A08FB0D0A08B70D0A080000000026
:1025A000000000000000000000000000000000002B
:1025B000000000000000000000000000000000001B
:1025C000000000000000000000000000000000000B
:1025D00000000000000000000000000000000000FB
:1025E00000000000000000000000000000000000EB
:1025F0000000000000000000000000004300000098
:102600003D020A089B020A0811070A08D9070A08AE
:10261000950A0A08E90A0A08010B0A08590E0A086D
:10262000E50F0A0815100A0869100A082D110A0892
:10263000B1110A0835120A0800000000000000006D
:042640000000000096
:10264400FD240A08000000009C250A08BC250A088D
:10265400DC250A0800000000000000000000000063
:1026640000000000FC250A08000000000000000033
:102674000000000000000000000000000000000056
:102684000000000000000000000000000000000046
:102694000000000000000000000000000000000036
:0826A40000000000040000200A
:1026AC00FFFFFFFF00000102030405060708090AEB
:1026BC000B0C0D0E0F101112131415161718191AE6
:0826CC001B1C1D1E1F2028002D
:0426D40078563412EE
:04000005080A0020C5
:00000001FF
