:02000002D0002C
:1040000000400D00B46C0D00000006000C0005011E
:084010000401DE0500000000C0
:0440180024680D000B
:1040200009480A49884208B505D0094A824202D0A7
:10403000121A02F08FFB0748074A0021121A02F0F9
:1040400094FB014808BD00BF4CE30320246C0D0025
:10405000B4E30320B4E30320F0E7032070B501F0DC
:104060001FFD074C074BE41AA40800251E46A54275
:1040700004D056F8253098470135F8E770BD00BFE9
:10408000206C0D00E46B0D0000F046B908B500F09F
:1040900063F9BDE8084001F0C5BC00F011BC00F0B8
:1040A00017BC00F015BC000008B5034A00210C2025
:1040B00000F050FBFEE700BF25450D000078B0FA88
:1040C00080F0400970470123037070470368C9B24C
:1040D0009B68184740228272C1600022032142601F
:1040E000026001724272704770B5044690F90A107E
:1040F000C06800F0F6FFF521E068FFF7E7FFE06831
:1041000000F0F6FF00283ED1142000F001FC00F082
:1041100011FA054600F00EFA401B632833D803223B
:10412000A17AE06800F0D6FF032828D1E068036890
:104130005B6998470646E06803685B6998470546EF
:10414000E068036845EA06255B69ADB2984707EE6B
:10415000905A9FED0E7AF8EE677AB9EE080A67EE8C
:10416000877A9FED0B7AA7EE870ADFED0A7AB4EE25
:10417000E70AF1EE10FAC8BFB0EE670A70BD06207C
:1041800000F0C6FBC6E79FED040A70BD0000FA42CE
:10419000000080370000C8420000C07F000000001F
:1041A00070B5044690F90A10C06800F09AFFF32138
:1041B000E068FFF78BFFE06800F09AFF002847D126
:1041C000142000F0A5FB00F0B5F9054600F0B2F9A7
:1041D000401B63283CD80322A17AE06800F07AFFF4
:1041E000032831D1E06803685B6998470646E068B8
:1041F00003685B6998470546E068036845EA062559
:104200005B699847A8B207EE900AF8EE677A17EE56
:10421000900A01F0DBFF14A3D3E9002302F02AF88F
:1042200002F03AFADFED0E7A07EE100A67EE277A0F
:1042300017EE900A01F0CAFF07A3D3E9002301F0AB
:1042400065FE02F029FA04E0062000F061FBBDE7FC
:10425000044800EE100A70BDCDCCCCCCCC6C4740ED
:10426000000080370000C07FD7A3703D0AF765408B
:1042700000F068B9034608461A6832B12C2201F8EA
:10428000012B186803681B681847014902F09EBAA1
:1042900060680D0037B50446C0680D4601F096FF12
:1042A000A268CDE900010549284600F019FB29184C
:1042B000201D03B0BDE83040FFF7DCBF62680D0091
:1042C00010B5054B03600446406810B103689B6855
:1042D0009847204610BD00BF40680D0010B5034B45
:1042E00003600446FFF7ECFF204610BD54680D0044
:1042F00010B50446FFF7F2FF2046102101F09BFCA9
:10430000204610BD10B50446FFF7DAFF204608210D
:1043100001F091FC204610BD08B501F041FCBDE85C
:10432000084000F0A3BE000038B504462DED028B16
:1043300010200D46B0EE408AFFF7AFFE30B1236883
:104340004360044B0360856080ED038ABDEC028B03
:10435000206038BD54680D0070B5AAB02AAC0023A7
:1043600044F8A03D4648FFF71BFF46492046FFF7AB
:10437000DBFF4348FFF7B8FE43492046FFF7D4FF71
:10438000212001F0DBFB01F00FFF3BA3D3E9002369
:1043900001F070FF02F080F93C4900EE100A20465F
:1043A000FFF7C2FF02987B238DF8303003680DF1D0
:1043B00031011B68984701F0B3FA0CA901F0B1F87C
:1043C000334B34491B788DF800300CAA3C2306A8E7
:1043D00000F04EFC079C7CB16368013B63605BB9F5
:1043E000236820469B689847A368013BA3601BB9DC
:1043F00023682046DB689847102507A82A46002135
:104400000690022602F0B1F9012323498DF82C30E1
:104410002846ADF81C50ADF81E608DF8203001F034
:1044200015FC044610B32A46002102F09EF904232D
:1044300025806680A3800A9BA360184BE3600A94E2
:1044400003A806A901F000F9039808B100F040FAAA
:104450000A9828B184680C2101F0EDFB2046F8E7AA
:10446000029830B103689B68984702E08DF82C00F1
:10447000E6E72AB070BD00BF9402C1D2AF63523FDD
:10448000B8E3032080680D008C680D0095680D006E
:10449000C8E303209D680D007C6B0D0000DD6D00FE
:1044A00008B5064B01221A7000F04CF801F078FBB9
:1044B000BDE8084001460248FFF70CBEC8E30320F0
:1044C000B8E3032008B5024B1B689B68019308BD45
:1044D0004802030008B5024B1B681B69019308BD25
:1044E0004802030008B5024B1B685B69019308BDD5
:1044F0004802030008B5024B1B685B6C019308BDC2
:104500004802030008B5024B1B689B6C019308BD71
:104510004802030008B5024B1B685B68019308BDA5
:104520001802030008B5024B1B68DB68019308BD45
:104530001802030008B5024B1B685B69019308BDB4
:104540001802030008B5024B1B681B68019308BDE5
:104550002C02030008B5024B1B685B68019308BD81
:104560002C02030008B5024B1B681B6B019308BDAE
:104570002C02030008B5024B1B68DB68019308BDE1
:104580002802030008B5024B1B689B69019308BD14
:104590002802030008B5024B1B68DB69019308BDC4
:1045A0002802030008B5024B1B681B6A019308BD73
:1045B0002802030008B5024B1B685B6A019308BD23
:1045C0002802030008B5024B1B689B6A019308BDD3
:1045D0002802030008B5024B1B68DB6A019308BD83
:1045E0002802030008B5024B1B681B6B019308BD32
:1045F0002802030008B5024B1B685B6B019308BDE2
:104600002802030008B5024B1B681B6C019308BD10
:104610002802030008B5024B1B681B6D019308BDFF
:104620002802030008B5024B1B685B69019308BDB3
:104630006402030008B5024B1B689B68019308BD28
:104640006802030008B5024B1B68DB68019308BDD4
:104650006802030008B5024B1B68DB69019308BDC3
:104660003002030008B5024B1B681B6A019308BDAA
:104670003002030008B5024B1B681B68019308BD9C
:104680003C02030008B5024B1B68DB68019308BDC0
:104690003C02030008B5024B1B681B69019308BD6F
:1046A0003C02030008B5024B1B685B69019308BD1F
:1046B0003C02030008B5024B1B689B69019308BDCF
:1046C0003C02030008B5024B1B68DB69019308BD7F
:1046D0003C02030008B5024B1B681B6A019308BD2E
:1046E0003C02030008B5024B1B689B6A019308BD9E
:1046F0003C02030008B5024B1B681B68019308BD10
:104700004C02030008B5024B1B681B69019308BDEE
:104710004C02030008B5024B1B685B69019308BD9E
:104720004C02030008B5024B1B689B69019308BD4E
:104730004C02030008B5024B1B68DB69019308BDFE
:104740004C02030008B5024B1B681B6A019308BDAD
:104750004C02030008B5024B1B685B6B019308BD5C
:104760006002030008B5024B1B681B6D019308BD76
:104770006002030008B5024B1B685B68019308BD2B
:104780002002030008B5024B1B685B69019308BD5A
:104790002002030008B5024B1B68DB6C019308BDC7
:1047A0002002030008B5024B1B685B6D019308BD36
:1047B0002002030008B5034B1B68D3F8883001932F
:1047C00008BD00002002030008B5034B1B68D3F8A6
:1047D0009430019308BD00002002030008B5034B8C
:1047E0001B68D3F8A830019308BD00002002030025
:1047F00008B5024B1B685B69019308BD44020300C6
:1048000008B5024B1B681B6A019308BD44020300F4
:1048100008B5024B1B68DB6B019308BD4402030023
:1048200008B5024B1B685B68019308BD400203009A
:1048300008B5024B1B689B68019308BD400203004A
:1048400008B5024B1B68DB68019308BD40020300FA
:1048500008B5024B1B681B69019308BD40020300A9
:1048600008B5024B1B685B69019308BD4002030059
:1048700008B5024B1B689B69019308BD4002030009
:1048800008B5024B1B68DB69019308BD40020300B9
:1048900008B5024B1B681B6A019308BD4002030068
:1048A00008B5024B1B681B6B019308BD4002030057
:1048B00008B5024B1B685B6B019308BD4002030007
:1048C00008B5024B1B681B68019308BD1C0203005E
:1048D00008B5024B1B685B68019308BD1C0203000E
:1048E00008B5024B1B68DB68019308BD1C0203007E
:1048F00008B5024B1B68DB6A019308BD1C0203006C
:1049000008B5024B1B681B6B019308BD1C0203001A
:104910000021FFF737BF10B5836804460BB901F0DB
:10492000A6F9C3689847A3681BB103222146204615
:10493000984720461021BDE8104001F07CB910B521
:104940000446006808B1FFF7DDFD204610BD10B534
:10495000036804469B689847A368013BA3602BB992
:1049600023682046DB68BDE81040184710BD0B687F
:10497000036013B15A6801325A60704710B504469B
:10498000006828B14368013B43600BB9FFF7DFFFC4
:10499000204610BD10B5064C002320462360FFF7CB
:1049A000A9FD2046034A0449BDE8104001F03EB984
:1049B000CCE30320B4E303203F490D0070470020FF
:1049C000704710B51021044601F035F9204610BD9E
:1049D00008B508B1FFF7F5FF08BD10B583680446B8
:1049E00013B1032201469847204610BD0022026001
:1049F00010B54FF69C728280B1F9044084808A80A1
:104A000002680C6804600A6010BD10B504460068B6
:104A1000FFF75EFF204610BD38B5C468F4B12378B7
:104A2000022B03D104F10C00FFF7EFFF656835B1ED
:104A30002846FFF7D2FF1021284601F0FCF8A568B0
:104A400035B12846FFF7C9FF1021284601F0F3F8D9
:104A500020461421BDE8384001F0EDB838BD13B54B
:104A6000044691E8050000234B600B602060626003
:104A700001A801930093FFF781FF204602B010BD0B
:104A8000F7B50C4602AD54F8043B45F8083D064620
:104A90000F4601A82146FFF76AFF29463046FFF777
:104AA000DEFF01A8FFF76AFF2046FFF767FF3846E1
:104AB000082101F0C0F8304603B0F0BD13B50B4635
:104AC000044603C88DE8030093E8030084E803006C
:104AD0009DE8030083E8030002B010BD38B5002351
:104AE0000446036010200D46FFF7D7FA28B10123D2
:104AF00043608360024B0360C5602060204638BD80
:104B0000B8680D00826810B50AB901F0B0F8C36842
:104B1000BDE81040184708B5006800F11001FFF724
:104B2000F1FF08BD826810B50AB901F0A0F8C368AA
:104B3000BDE81040184708B5006800F11001FFF704
:104B4000F1FF08BD38B5002383608B6804460D462D
:104B50002BB102229847EB68E360AB68A360204664
:104B600038BD0000F0B589B004686846FFF73EFF25
:104B700000238DF808304FF00202D4E84F3F002B9D
:104B800003D1C4E8412F0029F7D102D08DF80830B5
:104B900063E014F10C0503D069462846FFF726FFB1
:104BA000BFF35F8F01236370002004F10803BFF39C
:104BB0005F8F53E8006F43E80002002AF9D1BFF38A
:104BC0005F8F002E49D0FFF7E5FD20B12946304622
:104BD000FFF798FF3AE0314602A8FFF7B3FFE0681D
:104BE000B4F9105008B101F0F9FD06901020ADF8AD
:104BF0001C50FFF752FA0546E8B1002787601820DD
:104C0000FFF74BFA044688B10146876002A8FFF718
:104C100055FF049BA268A360059B049206A9E26865
:104C2000E36004F110000592FFF7E0FE0D4BEB602E
:104C30000D4B2C60AB6006A8FFF7E7FE02A8FFF75C
:104C4000CCFE002229460948FFF7ACFD3046FFF7AD
:104C5000C4FE1021304600F0EEFF6846FFF7D5FE97
:104C600009B0F0BD174B0D008D4D0D0017490D001B
:104C70002DE9F04F8BB006460F46904699469DF8B9
:104C800050A0FFF7B5FD07AD834630BB4FF62E733E
:104C9000059005A92846ADF81830FFF7A7FE1420A7
:104CA000FFF7FBF9044658B1022303700123437058
:104CB000C0F804B0C0F808B029460C30FFF796FEE3
:104CC0003046214640F8044BFFF708FF2846FFF71F
:104CD0009CFE05A8FFF799FE52E000240C23142047
:104CE0006C60AC600793FFF7D8F9014618B1047007
:104CF00044704460846004A80391FFF7EFFE224BE8
:104D000008930820FFF7C9F9044628B1039B40F82F
:104D1000043B04A9FFF72BFE00955FFA8AF34A468D
:104D2000414638460994FFF76BFD20B9039B5B7839
:104D300003F0FF0283B1039B059304A906A8FFF7C4
:104D400016FE05A93046FFF78AFE06A8FFF716FEF5
:104D500004A8FFF713FE13E04FF69C7305A903A800
:104D60000592ADF81830FFF7FDFE05A8FFF74DFEE0
:104D700005A80999FFF784FE06A8FFF7FFFDDAE70B
:104D800030460BB0BDE8F08FFD4E0D00022AF8B59D
:104D9000044606D0032A17D0012A22D10B680360EB
:104DA0001FE018200E68FFF778F9054650B131462C
:104DB000FFF7C8FE3069B6F9147008B101F00EFDB6
:104DC0002861AF8225600CE0046854B104F1100042
:104DD000FFF71BFE2046FFF700FE1821204600F0DB
:104DE0002AFF0020F8BD38B5002383608B68044695
:104DF0000D462BB102229847EB68E360AB68A360D5
:104E0000204638BD022A70B5044606D0032A11D0C8
:104E1000012A18D10B68036015E014200E68FFF713
:104E20003CF9054620B13146FFF7DDFF337C2B749A
:104E3000256008E0046834B12046FFF7CEFD142158
:104E4000204600F0F8FE002070BD0000F0B5002301
:104E500087B00C46BFF35F8F50E8006F40E8003228
:104E6000002AF9D1BFF35F8F002E3FD01846FFF71D
:104E700091FC074620B121463046FFF753FE2EE055
:104E8000314601A8FFF7AFFF23788DF814301020CA
:104E9000FFF703F90546D0B187601420FFF7FDF84E
:104EA000044678B18760014601A8FFF707FE039B1F
:104EB000A268A360049B0392E268E3609DF814304B
:104EC000049223740A4BEB600A4B2C60AB6001A880
:104ED000FFF783FD002229460748FFF763FC3046B1
:104EE000FFF77BFD1021304600F0A5FE07B0F0BDB6
:104EF000374B0D00054E0D0017490D0030B585B03C
:104F000004460D4668461146FFF7BAFD7CB124B24F
:104F100028460DB101F062FC029002A96846ADF886
:104F20000C40FFF71FFE02A8FFF76FFD1DE0009881
:104F30008DF808404FF00102D0E84F3FA34203D163
:104F4000C0E8412F0029F7D102D08DF808300CE0DD
:104F500010F10C014FF0010318BF0373BFF35F8F13
:104F6000043000F8033CFFF771FF01A8FFF706FDCE
:104F700005B030BD002211464068FFF789BC002211
:104F800011464068FFF794BC00224068FFF788BCD8
:104F9000002281F001014068FFF772BC00231A462D
:104FA00019464068FFF764BC00231A46194640685A
:104FB000FFF756BC002211464068FFF749BC0022AB
:104FC00011464068FFF734BC002202214068FFF719
:104FD00037BC00231A464068FFF722BC024B03226D
:104FE0005A60024A1A607047D0E30320D4680D006B
:104FF0007047F8B5064615460C468F18BC4206D0D9
:10500000336814F8011B9B6830469847F6E728463A
:10501000F8BD0022007CFFF7C5BA0021007CFFF735
:10502000C9BA0021007CFFF7CDBA0021007CFFF750
:10503000D1BA0021007CFFF7D5BA10B5142104467F
:1050400000F0F9FD204610BD10B504460023636052
:105050004FF47A73A360044B217408462360114611
:10506000FFF7D0FA204610BD08690D0000231A464C
:105070001946007CFFF77EBA70B50C4686B0142541
:1050800006462A46002101A801F06FFB23788DF81F
:10509000083063680393E36804930022237A307C2A
:1050A000ADF8045001A90593FFF7B4FA06B070BD3E
:1050B0001FB500338DF800104FF06401039118BF45
:1050C0000123694601928DF80830FFF7D5FF05B03E
:1050D0005DF804FB0123FFF7EBBF0022007CFFF724
:1050E00051BAC9B2FFF7F9BF0022007CFFF752BAEC
:1050F0000121FFF7F9BF0021007CFFF77BBA704761
:1051000010B51821044600F096FD204610BDF0B5FC
:10511000037D062B8DB00E4600F104074FF000040E
:1051200002D000F1080518E00CAD394605F8304D05
:105130002F232A460A20FFF775FA284601F069FB5B
:1051400033680246DB682946304698470FE024B1B1
:105150002E21304600F0D6F9044415F8011D0A222C
:10516000304600F0E8F9BD420444F0D120460DB0CD
:10517000F0BD000010B5054B0446112240F8043B79
:10518000002101F0F2FA204610BD00BF30690D0089
:105190000346074A10B543F8042B01F1100251F8F9
:1051A000044B43F8044B9142F9D10A781A7010BDB0
:1051B00030690D0010B59DF8084044EA032343EA26
:1051C000024242EA016104234160037510BD37B514
:1051D0000D788B784A78C97800912946FFF7EAFF65
:1051E00003B030BD014B024A1A607047D8E3032078
:1051F000AF690D00002211464068FFF749BB00224D
:1052000011464068FFF754BB00224068FFF748BBD7
:10521000002281F001014068FFF732BB00231A46EB
:1052200001214068FFF724BB00231A461946406855
:10523000FFF716BB002211464068FFF709BB0022AA
:1052400011464068FFF7F4BA002202214068FFF7D8
:10525000F7BA00231A464068FFF7E2BA38B50546A8
:1052600088B104684CB1A3681BB1032221462046D3
:1052700098471021204600F0DEFC28461421BDE8A6
:10528000384000F0D8BC38BD10B103685B681847DF
:10529000704710B503680446BBB15868FFF712F9B0
:1052A00078B923685A7C12B95868FFF713F9236854
:1052B0005868FFF717F920680023236028B1FFF72B
:1052C000CDFF206808B1FFF7C9FF204610BD38B5F3
:1052D0000446D0F8C40108B1FEF7E3FED4F8C001DB
:1052E00008B1FFF70FF9D4F8BC5135B12846FFF7E4
:1052F000D0FF0421284600F09EFC206808B1FFF78B
:10530000C3FF204638BD000010B5044B044640F8EA
:10531000083BFFF7DCFF204610BD00BF206A0D00F0
:1053200038B50E4C0E4B23600025022304F5E470C3
:105330006360A560C4F8C451C4F8C851FFF7DAF837
:10534000084BC4F8CC5184F8D05123602046064A5B
:105350000649BDE8384000F069BC00BFDCE303202B
:10536000546A0D00206A0D00B4E3032009530D00B8
:1053700000231A464068FFF753BA00220221406812
:10538000FFF75EBA002211464068FFF751BA0022CB
:1053900011464068FFF75CBA00231A461946406878
:1053A000FFF75EBA00231A4619464068FFF760BA55
:1053B000002281F001014068FFF762BA00224068D4
:1053C000FFF76EBA002211464068FFF771BA00225B
:1053D00011464068FFF75CBA2DE9F043002495B010
:1053E00016460D460746FFF7C5FE214620220CA8AB
:1053F000009401F0BAF940230C9321466B460CAAA5
:105400003046FFF71FF90446002844D10246012127
:105410006868FFF71DFA0221804622466868FFF798
:1054200017FA009E81462146002E34D0002932D141
:105430007368022B02D00A2B09D02AE0B8F1000FC2
:1054400027D0716938460431FFF7C1FE20E0B9F179
:10545000000F1ED07469112201A801F086F90623FD
:105460008DF8143001AD04F1080318341868596838
:105470002A4603C20833A3421546F7D101A906A85C
:1054800007ADFFF785FE0FCD3C1D0FC42B682370C1
:105490000121F669C8E70098FFF7CCF8384615B047
:1054A000BDE8F083024B034A1A6000225A6070473D
:1054B000B0E50320546A0D00F8B506460D468F1876
:1054C0000024BD420CD0336815F8011B9B683046A0
:1054D0009847002801DB0444F3E7002C08BF04468A
:1054E0002046F8BD70B505460C46084649B101F0A6
:1054F00090F92B68024621462846DB68BDE87040DB
:10550000184770BD03689B68184738B50D210546DC
:10551000FFF7F8FF0A2104462846FFF7F3FF20446F
:1055200038BD38B50546FFF7DDFF04462846FFF7CE
:10553000ECFF204438BD30B58BB00B4600218DF810
:105540002410012A98BF0A220DF12304B3FBF2F5BF
:1055500005FB123303F0FF03092B94BF30333733BD
:10556000DBB2214604F801392B46002DEED1FFF7BE
:10557000B9FF0BB030BD10B50446FFF72EFA204638
:1055800010BD00000348044A04490023836000F072
:105590004DBB00BFB8E50320B4E3032077550D00F1
:1055A000704710B50C21044600F045FB204610BDA5
:1055B00010B5054B0360044601710846FFF74AF831
:1055C0000023A360204610BD886A0D000079FFF714
:1055D00049B810B50446006818B1FFF779F90023FF
:1055E000236010BD10B50446FFF7F3FF204610BD41
:1055F00038B5B1F9043083800B460D4653F8062FB9
:10560000C0F806209B8843810446FFF7E2FF2B6821
:1056100013B1236000232B60204638BD38B50C46FB
:105620000546FFF7D6FF44B12088FFF749F9286007
:1056300028B12288214601F08DF8002038BD0148AC
:1056400038BD00BFFCFEFFFFF0B5304D0B7D0446BA
:105650008BB00846AF1D13B30B681B79FBB100225A
:105660004FF6FF7302A904300292ADF80C208DF8BA
:105670000E20ADF81020ADF81230FFF7AFF80AABEE
:1056800000B253F81A2DADF80C009B88A880C5F81D
:1056900006200299BB802846FFF7C0FF1CE02023AC
:1056A000002602931A4B00931A4903963346322080
:1056B00002AAFFF757F84FF6FF73ADF8123002A9B0
:1056C0004FF6F263114802968DF80E60ADF8106047
:1056D000ADF80C30FFF78CFF02A8FFF77AFF00232C
:1056E0002360A380A37123814FF6FF736381B5F913
:1056F0000430A3803B68C4F80630BB886381296806
:105700002046FFF78BFF20460BB0F0BDC8E5032015
:10571000976A0D00906A0D0010B5094C00204FF6F5
:10572000FF732060A080A07120816381FFF722F8C1
:105730002046044A0449BDE8104000F077BA00BF93
:10574000C8E50320B4E30320E5550D00024B1A68B9
:10575000024B1A60704700BF4CE30320D4E50320DE
:1057600070474174704708B5007CFEF7BBFF20EA24
:10577000E07008BD08B5007CFEF78CFF20EAE07001
:1057800008BD08B5007CFEF795FF30EA200028BF71
:105790004FF0FF3008BD08B5007CFEF783FF30EA0C
:1057A000200028BF4FF0FF3008BD007CFEF78ABF05
:1057B00010B51421044600F03EFA204610BD70B525
:1057C000457C04460E4625B9007CFEF78BFF002879
:1057D00005DD3146207CBDE87040FEF753BF28460A
:1057E00070BD000010B504460846114600226260F4
:1057F0004FF47A72A260054A22600122207462741A
:105800001A46FEF737FF204610BD00BFF06A0D00B4
:10581000007CFEF75FBF000038B50C4D296811F021
:10582000010411D12846FEF749FC68B1084A094B2A
:1058300009482146FFF7D6FF2846FEF744FC074AF1
:105840000749054800F0F2F9034838BD70E6032027
:1058500074E60320ECE50320D8E50320B4E303203D
:1058600061570D0041747047704708B50021007CF6
:10587000FEF758FF30EA200028BF4FF0FF3008BD88
:1058800008B50121007CFEF74DFF30EA200028BF5B
:105890004FF0FF3008BD08B5007CFEF73BFF20EA63
:1058A000E07008BD08B5007CFEF72CFF20EAE07030
:1058B00008BD007CFEF746BF10B51421044600F079
:1058C000BAF9204610BD38B50446007C0D46FEF7F7
:1058D00021FF002801DC607C28B12946207CFEF7EE
:1058E00029FF20EAE07038BD10B50446002363604C
:1058F0004FF47A73A360054B23600123084621749B
:1059000063741146FEF7F6FE204610BD206B0D00B5
:1059100010B514220446002100F027FF204610BDD8
:1059200030B50E4D87B001A8FFF7F2FF296811F0DE
:10593000010410D12846FEF7C1FB60B101AA21463F
:105940000748FFF7D1FF2846FEF7BDFB054A064989
:10595000034800F06BF9024807B030BDF8E60320B9
:10596000FCE60320B4E3032069580D000022114631
:105970004068FEF76DBF002211464068FEF788BF01
:10598000002211464068FEF793BF00224068FEF7F0
:1059900087BF002281F001014068FEF771BF00233C
:1059A0001A4619464068FEF763BF00231A46194697
:1059B0004068FEF755BF002211464068FEF738BF29
:1059C000002202214068FEF73BBF00231A464068D0
:1059D000FEF726BF024B04225A60024A1A60704743
:1059E00010E70320506B0D0008B50C4B33B1FFF7E7
:1059F00097FF03681B699847002809DC084B63B1CF
:105A0000FFF70AFF03681B699847002803DC08BDFD
:105A1000AFF30080F2E7AFF3008008BD00000000A4
:105A20000000000008B5FFF7DFFFFEF783FD014B24
:105A3000186008BD20E703200248034A0349121AF0
:105A400000F088BE00F4032004F40320206C0D0055
:105A500007B5002300931A466FF07701FEF7B4FEF6
:105A600003B05DF804FB000007B543880A2B08D09B
:105A7000502B09D1094B1B683BB103B05DF804EB17
:105A80001847FFF7E5FF06E0002300931A466FF082
:105A90007701FEF799FE03B05DF804FB18E70320D9
:105AA00038B5104C104D2368AB42104B0CBF01228F
:105AB00000221A7002D0FFF7BFFF2560FEF72AFD13
:105AC000044600F05BFE0A4B13B12046AFF30080A2
:105AD00000210748FEF79CFE00210648BDE838403B
:105AE000FEF768BE00F403201E1C279A1CE7032063
:105AF00000000000695A0D0010B5044600F076F869
:105B0000FFF764FD28B1A4F10B03022B01D800209C
:105B100010BD00F045F8FFF7EEFA08B1012CF6D9F8
:105B2000FFF77AFEFFF774FE18B1A4F10903012B09
:105B3000EDD9232C8CBF0020012010BD0D2810B5FD
:105B400004469CBF0E34A4B22046FFF7D5FF50B1E7
:105B500003212046FEF7FEFC032804D12046BDE8C1
:105B60001040FEF7FFBC002010BD000070B50446D9
:105B700014252A46094E002100F0F7FD2580202536
:105B80003146A5602561284600F06FF83146606017
:105B9000284600F06AF8E060204670BD7C6B0D007E
:105BA00030B50E4D296811F0010487B013D1284695
:105BB000FEF784FA78B101A8FFF7D8FF01AA2146C1
:105BC0000748FFF741FA2846FEF77DFA054A0649DD
:105BD000034800F02BF8024807B030BD24E703204B
:105BE00028E70320B4E30320F14F0D0038B50B4D37
:105BF000296811F001040FD12846FEF75FFA58B169
:105C000021460748FFF7D4FC2846FEF75CFA054A10
:105C10000549034800F00AF8014838BD48E7032069
:105C20003CE70320B4E30320A1550D000B460146D9
:105C3000184600F081BDFEF732BA0000024B18682A
:105C4000BFF35F8F704700BF4CE7032010B50028FB
:105C500014BF044601242046FEF732FE20B9FFF7A8
:105C6000EDFF08B18047F6E710BDFFF7EFBF08B5BD
:105C7000FEF73EFE244B1A68D0075CBF01221A6073
:105C8000224B1A68D1075CBF01221A60204B1A68A8
:105C9000D2075CBF01221A601E4B1A68D0075CBF96
:105CA00001221A601C4B1A68D1075CBF01221A60DE
:105CB0001A4B1A68D2075CBF01221A60184B1A6887
:105CC000D0075CBF01221A60164B1A68D1075CBF6F
:105CD00001221A60144B1A68D2075CBF01221A60B5
:105CE000124B1A68D0075CBF01221A60104B1A6869
:105CF000D1075CBF01221A600E4B1A68D2075CBF45
:105D000001221A60704700BF7CE7032078E7032078
:105D100074E7032070E703206CE7032068E70320A3
:105D200064E7032060E703205CE7032058E70320D3
:105D300054E7032050E70320184B1A68D1075CBFD3
:105D400001221A60164B1A68D2075CBF01221A6042
:105D5000144B1A68D0075CBF01221A60124B1A68F4
:105D6000D1075CBF01221A60104B1A68D2075CBFD2
:105D700001221A600E4B1A68D0075CBF01221A601C
:105D80000C4B1A68D1075CBF01221A600A4B1A68D3
:105D9000D2075CBF01221A60704700BF9CE7032056
:105DA00098E7032094E7032090E703208CE7032083
:105DB00088E7032084E7032080E70320184B1A6854
:105DC000D1075CBF01221A60164B1A68D2075CBF6C
:105DD00001221A60144B1A68D0075CBF01221A60B6
:105DE000124B1A68D1075CBF01221A60104B1A6867
:105DF000D2075CBF01221A600E4B1A68D0075CBF45
:105E000001221A600C4B1A68D1075CBF01221A608C
:105E10000A4B1A68D2075CBF01221A60704700BFA4
:105E2000BCE70320B8E70320B4E70320B0E7032072
:105E3000ACE70320A8E70320A4E70320A0E70320A2
:105E4000244B1A68D0075CBF01221A60224B1A68E3
:105E5000D1075CBF01221A60204B1A68D2075CBFD1
:105E600001221A601E4B1A68D0075CBF01221A601B
:105E70001C4B1A68D1075CBF01221A601A4B1A68C2
:105E8000D2075CBF01221A60184B1A68D0075CBFAA
:105E900001221A60164B1A68D1075CBF01221A60F2
:105EA000144B1A68D2075CBF01221A60124B1A68A1
:105EB000D0075CBF01221A60104B1A68D1075CBF83
:105EC00001221A600E4B1A68D2075CBF01221A60C9
:105ED000704700BFECE70320E8E70320E4E7032076
:105EE000E0E70320DCE70320D8E70320D4E7032022
:105EF000D0E70320CCE70320C8E70320C4E7032052
:105F0000C0E7032081F0004102E000BF83F00043BE
:105F100030B54FEA41044FEA430594EA050F08BF44
:105F200090EA020F1FBF54EA000C55EA020C7FEA08
:105F3000645C7FEA655C00F0E2804FEA5454D4EB85
:105F40005555B8BF6D420CDD2C4480EA020281EA4F
:105F5000030382EA000083EA010180EA020281EA87
:105F60000303362D88BF30BD11F0004F4FEA0131D9
:105F70004FF4801C4CEA113102D0404261EB4101E8
:105F800013F0004F4FEA03334CEA133302D052426E
:105F900063EB430394EA050F00F0A780A4F101042A
:105FA000D5F1200E0DDB02FA0EFC22FA05F2801864
:105FB00041F1000103FA0EF2801843FA05F359414A
:105FC0000EE0A5F120050EF1200E012A03FA0EFCC9
:105FD00028BF4CF0020C43FA05F3C01851EBE371F3
:105FE00001F0004507D54FF0000EDCF1000C7EEB10
:105FF00000006EEB0101B1F5801F1BD3B1F5001F4E
:106000000CD349085FEA30004FEA3C0C04F101046C
:106010004FEA445212F5800F80F09A80BCF1004F95
:1060200008BF5FEA500C50F1000041EB045141EA17
:10603000050130BD5FEA4C0C404141EB010111F418
:10604000801FA4F10104E9D191F0000F04BF0146C3
:106050000020B1FA81F308BF2033A3F10B03B3F1A1
:1060600020020CDA0C3208DD02F1140CC2F10C0231
:1060700001FA0CF021FA02F10CE002F11402D8BF8F
:10608000C2F1200C01FA02F120FA0CFCDCBF41EA5B
:106090000C019040E41AA2BF01EB0451294330BD2A
:1060A0006FEA04041F3C1CDA0C340EDC04F1140407
:1060B000C4F1200220FA04F001FA02F340EA0300DE
:1060C00021FA04F345EA030130BDC4F10C04C4F124
:1060D000200220FA02F001FA04F340EA0300294604
:1060E00030BD21FA04F0294630BD94F0000F83F44E
:1060F000801306BF81F480110134013D4EE77FEA31
:10610000645C18BF7FEA655C29D094EA050F08BF7C
:1061100090EA020F05D054EA000C04BF194610465D
:1061200030BD91EA030F1EBF0021002030BD5FEAA1
:10613000545C05D14000494128BF41F0004130BDC9
:1061400014F580043CBF01F5801130BD01F000451D
:1061500045F0FE4141F470014FF0000030BD7FEA90
:10616000645C1ABF194610467FEA655C1CBF0B468B
:10617000024650EA013406BF52EA033591EA030FA2
:1061800041F4002130BD00BF90F0000F04BF00219A
:10619000704730B54FF4806404F132044FF00005CD
:1061A0004FF0000150E700BF90F0000F04BF002146
:1061B000704730B54FF4806404F1320410F00045AC
:1061C00048BF40424FF000013EE700BF42004FEAA7
:1061D000E2014FEA31014FEA02701FBF12F07F4324
:1061E00093F07F4F81F06051704792F0000F14BF21
:1061F00093F07F4F704730B54FF4607401F0004565
:1062000021F0004120E700BF50EA010208BF7047BB
:1062100030B54FF000050AE050EA010208BF7047B0
:1062200030B511F0004502D5404261EB41014FF419
:10623000806404F132045FEA915C3FF4DCAE4FF01D
:1062400003025FEADC0C18BF03325FEADC0C18BF04
:10625000033202EBDC02C2F1200300FA03FC20FA55
:1062600002F001FA03FE40EA0E0021FA02F11444A2
:10627000C1E600BF70B54FF0FF0C4CF4E06C1CEAB7
:1062800011541DBF1CEA135594EA0C0F95EA0C0F2C
:1062900000F0DEF82C4481EA030621EA4C5123EA9F
:1062A0004C5350EA013518BF52EA033541F48011CE
:1062B00043F4801338D0A0FB02CE4FF00005E1FB81
:1062C00002E506F00042E0FB03E54FF00006E1FBCB
:1062D00003569CF0000F18BF4EF0010EA4F1FF040E
:1062E000B6F5007F64F5407404D25FEA4E0E6D414E
:1062F00046EB060642EAC62141EA55514FEAC5205F
:1063000040EA5E504FEACE2EB4F1FD0C88BFBCF5DA
:10631000E06F1ED8BEF1004F08BF5FEA500E50F18B
:10632000000041EB045170BD06F0004646EA010151
:1063300040EA020081EA0301B4EB5C04C2BFD4EB83
:106340000C0541EA045170BD41F480114FF0000E7C
:10635000013C00F3AB8014F1360FDEBF002001F0EA
:10636000004170BDC4F10004203C35DA0C341BDC64
:1063700004F11404C4F1200500FA05F320FA04F036
:1063800001FA05F240EA020001F0004221F000416A
:1063900010EBD37021FA04F642EB06015EEA430EDD
:1063A00008BF20EAD37070BDC4F10C04C4F120050D
:1063B00000FA04F320FA05F001FA04F240EA0200C0
:1063C00001F0004110EBD37041F100015EEA430E91
:1063D00008BF20EAD37070BDC4F1200500FA05F2B1
:1063E0004EEA020E20FA04F301FA05F243EA020330
:1063F00021FA04F001F0004121FA04F220EA02003F
:1064000000EBD3705EEA430E08BF20EAD37070BD84
:1064100094F0000F0FD101F00046400041EB010164
:1064200011F4801F08BF013CF7D041EA060195F046
:10643000000F18BF704703F00046520043EB030300
:1064400013F4801F08BF013DF7D043EA06037047ED
:1064500094EA0C0F0CEA135518BF95EA0C0F0CD0F8
:1064600050EA410618BF52EA4306D1D181EA03013E
:1064700001F000414FF0000070BD50EA410606BF38
:106480001046194652EA430619D094EA0C0F02D17D
:1064900050EA013613D195EA0C0F05D152EA0336C2
:1064A0001CBF104619460AD181EA030101F00041E0
:1064B00041F0FE4141F470014FF0000070BD41F029
:1064C000FE4141F4780170BD70B54FF0FF0C4CF403
:1064D000E06C1CEA11541DBF1CEA135594EA0C0F22
:1064E00095EA0C0F00F0A7F8A4EB050481EA030E6F
:1064F00052EA03354FEA013100F088804FEA033356
:106500004FF0805545EA131343EA12634FEA022223
:1065100045EA111545EA10654FEA00260EF00041E4
:106520009D4208BF964244F1FD0404F5407402D236
:106530005B084FEA3202B61A65EB03055B084FEAC7
:1065400032024FF480104FF4002CB6EB020E75EBC4
:10655000030E22BFB61A754640EA0C005B084FEAEC
:106560003202B6EB020E75EB030E22BFB61A754669
:1065700040EA5C005B084FEA3202B6EB020E75EBB4
:10658000030E22BFB61A754640EA9C005B084FEA2C
:106590003202B6EB020E75EB030E22BFB61A754639
:1065A00040EADC0055EA060E18D04FEA051545EA28
:1065B00016754FEA06164FEAC30343EA52734FEAD1
:1065C000C2025FEA1C1CC0D111F4801F0BD141EA4A
:1065D00000014FF000004FF0004CB6E711F4801FAF
:1065E00004BF01430020B4F1FD0C88BFBCF5E06F8F
:1065F0003FF6AFAEB5EB030C04BFB6EB020C5FEA9F
:10660000500C50F1000041EB045170BD0EF0004EF3
:106610004EEA113114EB5C04C2BFD4EB0C0541EA25
:10662000045170BD41F480114FF0000E013C90E622
:1066300045EA060E8DE60CEA135594EA0C0F08BFE6
:1066400095EA0C0F3FF43BAF94EA0C0F0AD150EAE5
:1066500001347FF434AF95EA0C0F7FF425AF104678
:1066600019462CE795EA0C0F06D152EA03353FF4A0
:10667000FDAE1046194622E750EA410618BF52EA1D
:1066800043067FF4C5AE50EA41047FF40DAF52EAF1
:1066900043057FF4EBAE12E74FEA4102B2F1E0436B
:1066A00024BFB3F5001CDCF1FE5C0DD901F0004CF9
:1066B0004FEAC0024CEA5070B2F1004F40EB830049
:1066C00008BF20F00100704711F0804F21D113F175
:1066D0003872BCBF01F00040704741F480114FEAAE
:1066E0005252C2F11802C2F1200C10FA0CF320FA37
:1066F00002F018BF40F001004FEAC1234FEAD32354
:1067000003FA0CFC40EA0C0023FA02F34FEA4303BD
:10671000CCE77FEA625307D150EA01331EBF4FF046
:10672000FE4040F44000704701F0004040F0FE4061
:1067300040F40000704700BF10B5054C13462CB163
:106740000A4601460220AFF3008010BD204610BD6E
:106750000000000010B5431E0A44914204D011F815
:10676000014B03F8014FF8E710BD02440346934282
:1067700002D003F8011BFAE77047000038B5124B4E
:106780001C68A36B0546D3B91820FEF799F843F2AD
:106790000E33A06303804AF6CD33438041F23423A5
:1067A00083804EF26D63C3804DF6EC630381052355
:1067B00043810B23838101220023C0E90423A36BBF
:1067C00000221D615A6138BDB0E30320034611F871
:1067D000012B03F8012B002AF9D17047024B014627
:1067E000186800F003B800BFB0E3032070B5064698
:1067F00008460C4600F00DF8451C29463046FEF7C9
:106800007FF8064618B12A462146FFF7A3FF304617
:1068100070BD034613F8012B002AFBD1181A01386A
:106820007047000021400D005D400D0089400D00C3
:106830008D400D000000000000000000000000007E
:10684000A9400D0000000000000000000000000052
:106850000000000095420D00DD420D00F1420D00E8
:106860007D00222573223A20252E326600222573D0
:10687000223A20256900222573223A20256C7500D2
:1068800074656D70657261747572650068756D69A7
:106890006469747900766F6C7461676500616D621C
:1068A00069656E63652F6369676172626F78000066
:1068B0000000000000000000BD490D00C3490D00AC
:1068C000194A0D00D1490D00BF490D00000000001C
:1068D00000000000D34F0D00C94F0D00BF4F0D0049
:1068E000B54F0D00A94F0D009D4F0D00914F0D00AC
:1068F000894F0D007F4F0D00754F0D00D9530D00CE
:106900000000000000000000F14F0D003B500D00A2
:1069100013500D00F34F0D001B500D0023500D00C0
:106920002B500D0033500D0000000000000000004F
:106930000F510D00FF500D0001510D006261756493
:106940000053657269616C0053657269616C310056
:106950007479706500706172616D00636D640069C7
:106960006400686E64007374726D0066696C740014
:106970006C766C0061646448616E646C6572007270
:10698000656D6F766548616E646C657200656E75E5
:106990006D48616E646C657273004A534F4E537458
:1069A0007265616D4C6F6748616E646C6572006101
:1069B000707000253031307520005D2000256400A6
:1069C0002C200028293A2000205B00636F6465209A
:1069D0003D200064657461696C73203D20000D0AE0
:1069E000006C6E00666E00636F64650064657461C0
:1069F000696C006E6F6E6500747261636500696E2C
:106A0000666F007761726E006572726F72007061FE
:106A10006E696300616C6C00000000000000000003
:106A200053520D0049520D003F520D0035520D00DA
:106A300029520D001D520D0011520D0009520D007A
:106A4000FF510D00F5510D00D9530D00000000005D
:106A50000000000071530D007B530D0085530D00A5
:106A60008F530D0099530D00A5530D00B1530D0028
:106A7000BD530D00C5530D00CF530D00D9530D006C
:106A80000000000000000000A1550D00A3550D00FE
:106A9000776972696E670053797374656D20736CE2
:106AA00065657020636F6E66696775726174696F82
:106AB0006E20697320696E76616C69642E005A00DD
:106AC000252B3033643A253032750025592D256D3C
:106AD0002D25645425483A254D3A2553257A0061E1
:106AE000736374696D650000000000000000000021
:106AF00061570D00B1570D00BF570D00B9540D007F
:106B000075570D0097570D0083570D00AB570D00BB
:106B100063570D0067570D000000000000000000E3
:106B200069580D00B9580D00C7580D00B9540D0033
:106B3000A5580D006B580D0081580D00B3580D007D
:106B400097580D0065580D0000000000000000007F
:106B5000CB590D00C1590D00B7590D006D590D00ED
:106B6000AB590D009F590D0093590D008B590D0025
:106B700081590D0077590D00D9530D000000000018
:106B80000000000000000000000000000000000005
:106B900000000000000000000000000000000000F5
:106BA00000000000000000000000000000000000E5
:106BB00000000000000000000000000000000000D5
:106BC00000000000000000000000000000000000C5
:106BD00000000000000000000000000000000000B5
:106BE0004300000071420D00A1440D0095490D00C5
:106BF000DD4F0D00E5510D0021530D00A5540D0092
:106C000085550D0019570D004D570D00D5590D0034
:106C1000755C0D00395D0D00BD5D0D00415E0D0020
:046C20000000000070
:106C2400DF6A0D0000000000806B0D00A06B0D00FA
:106C3400C06B0D0000000000000000000000000018
:106C440000000000E06B0D000000000000000000E8
:106C54000000000000000000000000000000000030
:106C64000000000000000000000000000000000020
:106C74000000000000000000000000000000000010
:086C84000000000050E30320B2
:106C8C00FFFFFFFF00000102030405060708090AC5
:106C9C000B0C0D0E0F101112131415161718191AC0
:086CAC001B1C1D1E1F20280007
:046CB40078563412C8
:04000003D0004020C9
:00000001FF
